:040000008A15002835
:0E000600213083120313FD00FD0B07280800B4
:06001400000000000800DE
:10001A000F3083120313FC004730FD00FD0B132839
:0A002A00FC0B132800000000080082
:1000340083120317D11B2028861121288615511BF2
:100044002528061126280615D11A2A2886102B28B9
:100054008614511A2F280610302806148316031309
:100064004418372883120616392883120612861676
:100074000A2086120317D1194128861142288615B1
:1000840051194628061147280615D1184B28861001
:100094004C2886145118502806105128061483162B
:1000A400031344185828831206165A28831206127A
:1000B40086160A2086128316441C62280D206328A3
:0400C400032008000D
:1000C80083120313F801F9011030FC00710DF80DCB
:1000D800F90D7408F8027508031C750FF902031866
:1000E8007C287408F80775080318750FF9070310BA
:0A00F800F00DF10DFC0B6A28080062
:10010200831603134410831203175008D1001A20D8
:06011200831644140800EE
:100118009E28803083120317CB00B128C030CB0053
:10012800B1289430CB00B128D430CB00B12880302E
:10013800CB00B128831203174B08013A03198D2805
:100148004B08023A031992284B08033A03199528D9
:100158004B08043A031998289B284C03F0004B08D5
:10016800F0077008CB008316031344147008831239
:100178000317D1001A2083164410831203174D0861
:0A018800D1001A2083164414080069
:10019200DB28803083120317CB00EE28C030CB005F
:1001A200EE289430CB00EE28D430CB00EE288030FD
:1001B200CB00EE28831203174B08013A0319CA2811
:1001C2004B08023A0319CF284B08033A0319D228E5
:1001D2004B08043A0319D528D8284C03F0004B08E1
:1001E200F0077008CB007008D1001A208316441063
:1001F20083120317CE014E084D078400000803192D
:100202000C294E084D0784000008D000812083127B
:0E0212000317CE0AFC288316031344140800B9
:10022000831203174B088D0083168C130C14831252
:060230000C08F0000800BC
:10023600013083120317CC004B08F100CB0A71087A
:1002460084000008003A03193C294B088400000882
:10025600203A03193A294C084B02F1004B08840056
:100266000008F0007108840070088000CC03CC0AF6
:040276001F29080034
:10027A0083120317CE0105304E0203184B294E088C
:10028A004D07840020308000CE0A40294E084D07D1
:10029A0084008001CE034E084D07CF000A30F400D7
:1002AA00F5014B08F0004C08F10064207808F000D2
:1002BA007908F1003030F00703174F0884007008FE
:1002CA0080000A30F400F5014B08F0004C08F100F8
:1002DA00642070080317CB007108CC000030710647
:1002EA00031D792900307006031D7C297E29CE035F
:0402FA00502908007F
:0E02FE00831603136F088A006E088200080042
:10030C00013083160313C2000430F000831203176C
:10031C0046080313B2000030B21BFF30B300700864
:10032C0003199D29B20DB30D3210FF3E9629B20A66
:10033C000319B30A03174608CB000030CB1BFF3060
:10034C00CC00AE30CD003D21AE30CB001B21490896
:10035C00CB000130CC00AE30CD00C920C20A8312D4
:10036C0003174908CB0083160313420883120317A3
:10037C00CC002030CD008C20C20A8312A001A10138
:10038C0080302106F00080307002031DCF29093027
:10039C0020020318F72932080317CB00102170082C
:1003AC000313EF007008403C0318EF297B306F02F9
:1003BC000318EF2903174908CB00831603134208CF
:1003CC0083120317CC0003136F080317CD008C2086
:1003DC00C20A8312B20A0319B30AA00A0319A10AAA
:1003EC00C6290A308316C200831203174708CB00B4
:1003FC004808CC00AE30CD003D214908CB00831617
:10040C000313420883120317CC002030CD008C203C
:10041C00C20AAE3083120317CB001B214908CB0054
:10042C0083160313420883120317CC00AE30CD00A1
:10043C00C92002308312B2070318B30AA001A1012C
:10044C0080302106F00080307002031D2F2A03300B
:10045C0020020318472A32080317CB00102170081A
:10046C000313EF0070080317D00081208312B20A27
:10047C000319B30A8316C20A8312A00A0319A10A2C
:04048C00262A080014
:10049000063083120313FD00FD0B4C2A00000800F8
:1004A0000E3083120313FD00FD0B542A00000800D8
:1004B00083120317C601C801C9011030CA000430F5
:1004C00049020318882AF0300313880003174A09E9
:1004D0008316031388000A200A200F3083120805B0
:1004E000F00070080317C70070080319822A480833
:1004F000C60047080319802AC70CC713C60A792A01
:100500000430C900CA0D4A100430C807C90A5F2A5E
:060510004608F00008009F
:100516008312031744088400000803199F2A44081D
:1005260084000008F1004508840071080006031DD8
:100536009F2AC40AC50A8B2A440884000008F000D2
:10054600450884000008F002F101031CF1030800CD
:1005560083120313FB01FA01F9018030F800F10C54
:10056600F00C031CBF2A7408F90775080318750FE9
:10057600FA070318FB0A0310F01FC72A7408FA07C4
:1005860075080318750FFB07FB0CFA0CF90CF80C31
:10059600031CB22A7B08F3007A08F2007908F100FE
:0605A6007808F0000800D7
:1005AC0083160313981690308312980083168717BE
:1005BC00071383128C1EE52A1A08F000DF2A0800A4
:1005CC00013083120317D1001A204108643A031931
:1005DC00FD2A41080317C60003133E080317C70082
:1005EC0003133F080317C8000130C90086214008D7
:1005FC00643A03190F2B40080317C6000313220893
:10060C000317C700031323080317C8000230C900DF
:04061C00862108002B
:10062000013083120317D1001A2001300317CB00C9
:100630000130CC003430CD00C9201A30FC00F83035
:10064000FD00FD0B212BFC0B212B00008312EF0181
:100650008316AD018312EE018316A901AA01AC0134
:0C066000AB018312BD01B201B301080020
:10066C0083120313EF018316AD018312EE0183167F
:10067C00A901AA01AC01AB018312ED01BC01BD01C2
:06068C00B201B3010800F9
:10069200831203174408F2007208F100F20A4508B7
:1006A200F000C50A700884000008F0007108840098
:1006B200700880007108840000080319612B4D2B1B
:0606C2004408F0000800EE
:1006C800831603178C1C6A2B0000642B83124408C2
:1006D8008D0045088C0083168C130C150B08F00050
:1006E8008B1355308D00AA308D008C14F01B7E2B97
:0A06F8008B137F2B8B170C110800E9
:1007020058227008C4000F3003130805F0000319C3
:0E0712008C2B4822842B03174408F0000800AB
:0A072000FF30831603138800080061
:10072A00831203137008F100F0010830FC0071080D
:10073A00F40C0318A42BFC0B9D2BF10100340310BD
:10074A00A92BF40C0318F107F10CF00CFC0BA62BE7
:02075A00080095
:10075C007F218A110A128000840AEE0A0319EF0A1B
:08076C00F003031DAE2B080091
:1007740083160313861206120610861006118611BC
:1007840083128612061286110611861006100D2099
:100794000D200D208614061486160A2086120D20BC
:1007A40086160A2086120D2086160A2086120D202F
:1007B400061086160A2086120D2086160A20861236
:1007C4008610861586160A2086120D2086110614B8
:1007D40086160A208612061086160A2086120D2016
:1007E40086160A208612061486160A2086120D2002
:1007F400061086160A208612861506158614061417
:0E08040086160A2086120D2083164414080062
:0E0812000030831203138C1A0130F00008002E
:10082000831203131A088316C3008312981C1A2C10
:0C0830001812181683164308F000080088
:10083C003C30831203139F05C0309F0003174408FC
:10084C00F000F00D7010F00D7010700803139F0481
:10085C0083169F1783121F1450229F149F1C382C31
:10086C000000342C1F101E08F100F00183161E0826
:08087C00F0040030F104080053
:10094000203084004D3083120313F00042308316B0
:10095000EE000430EF00AE23A03084000930031312
:10096000F0008F308316EE000430EF00AE236D30C0
:10097000840003300313F0009D308316EE00043032
:10098000EF00AE23A930840005300313F000983047
:0C0990008316EE000430EF00AE230800D8
:101000008A11A0248A158A1190238A15803003172B
:1010100088008901FF30031385008A11BA238A15DD
:10102000013083120317D1008A111A208A150C305F
:101030000317D1008A111A208A1507300317C4003C
:101040008A111E248A1570088312AB0003178713B8
:101050008813333083160313990018158A11D6228A
:101060008A158230FC00DD30FD00FD0B3528FC0BBD
:1010700035280000000083122B08003A031DA12C24
:10108000831201300317D1008A111A208A1501300A
:101090000317CB000130CC002C30CD008A11C920C1
:1010A0008A1583126F082B3A031965286F082D3AA9
:1010B000031965286F082E3A031965286F082F3A1F
:1010C000031965286F088316AD008312EF018A119A
:1010D00081238A1570080313EF0007300317C4003B
:1010E0008A111E248A1570088312AB007008003A1A
:1010F00003197B287E286F08031967282B08003AFC
:1011000003198328A02CB4283130EF00F4283430A0
:10111000EF00F4283730EF00F4284A30EF00F428CD
:101120003230EF00F4283530EF00F4283830EF008B
:10113000F4283030EF00F4283330EF00F428363054
:10114000EF00F4283930EF00F4284C30EF00F42899
:101150002B30EF00F4282D30EF00F4282E30EF0074
:10116000F4282F30EF00F4286F08013A031984287F
:101170006F08023A031987286F08033A03198A286F
:101180006F08043A03198D286F08053A031990284F
:101190006F08063A031993286F08073A031996282F
:1011A0006F08083A031999286F08093A03199C280F
:1011B0006F080A3A03199F286F080B3A0319A228EF
:1011C0006F080C3A0319A5286F080D3A0319A828CF
:1011D0006F080E3A0319AB286F080F3A0319AE28AF
:1011E0006F08103A0319B12883162D08003A031D21
:1011F0000E2983126F082B3A03190B296F082D3A19
:1012000003190B296F082E3A03190B296F082F3A7F
:1012100003190B290E298A1110238A1583126F08CE
:101220002B3A031DCA2901308316AC0062294130D4
:10123000AD00C3294430AD00C3294730AD00C329F8
:101240005630AD00C3294230AD00C3294530AD0052
:10125000C3294830AD00C3294B30AD00C32943300A
:10126000AD00C3294630AD00C3294930AD00C329C4
:101270005930AD00C3294D30AD00C3295030AD0009
:10128000C3295330AD00C3295730AD00C3294E30B8
:10129000AD00C3295130AD00C3295430AD00C3297E
:1012A0005830AD00C3294F30AD00C3295230AD00D6
:1012B000C3295530AD00C3295A30AD00C3290130D0
:1012C000AB00C3292D08313A031917292D08343AE8
:1012D00003191A292D08373A03191D292D084A3AEE
:1012E000031920292D08323A031923292D08353AEC
:1012F000031926292D08383A031929292D08303ACF
:1013000003192C292D08333A03192F292D08363AB1
:10131000031932292D08393A031935292D084C3A79
:10132000031938292D08413A03193B292D08443A5D
:1013300003193E292D08473A031941292D08563A29
:10134000031944292D08423A031947292D08453A23
:1013500003194A292D08483A03194D292D084B3AFB
:10136000031950292D08433A031953292D08463AE9
:10137000031956292D08493A031959292D08593AB4
:1013800003195C295F292B080319C9298A11102325
:101390008A159F2C83126F082D3A031DF629013000
:1013A000BC0083162908F0002A08F1000A30F40076
:1013B0000030F5008A11AB228A15303083162D02D9
:1013C000F200F301031CF3037208F007730803181B
:1013D000013EF1077008A9007108AA00AD0170086C
:1013E0008312A4008316A901AA019F2C83126F08FF
:1013F0002E3A031DAB2B01300317D1008A111A209E
:101400008A1502300317CB000130CC002530CD0007
:101410008A11C9208A151A30FC00F830FD00FD0B36
:101420000F2AFC0B0F2A000083123C080319BB2A69
:1014300083162908F0002A08F1000A30F400003071
:10144000F5008A11AB228A15303083162D02F20086
:10145000F301031CF30372087007A9007108031855
:10146000013E7307AA00013083120317D1008A11CD
:101470001A208A15A001A10180302106F0008030D9
:101480007002031D452A103020020318B72A0430C9
:10149000F00020080317CB0070080319532ACB0D66
:1014A0004B10FF3E4D2A8A1110218A1500308316F9
:1014B00003132A06031D5E2A70082906031DB12A9C
:1014C0000430F20083122008F0002108F1007208B5
:1014D00003196F2AF00DF10D7010FF3E682A831278
:1014E0000B30F0070318F10A7008C2007108C3003E
:1014F00070080317C400031324080317C5008A11DA
:1015000064238A150230831203134207F000430854
:101510000318013EF1007008C2007108C300700892
:101520000317C4004D30C5008A1164238A15831245
:101530000313C20A0319C30A42080317C40069301F
:10154000C5008A1164238A1583120313C20A031982
:10155000C30A42080317C4006E30C5008A11642311
:101560008A1583120313A00A0319A10A3C2A8A11BF
:1015700036238A15AA2B303083162D02031CA42B88
:101580002D08393C031CA42B2908F0002A08F1007F
:101590000A30F4000030F5008A11AB228A15303091
:1015A00083162D02F200F301031CF3037208700787
:1015B000A90071080318013E7307AA008312A00155
:1015C000A10180302106F00080307002031DEA2A5C
:1015D000103020020318552B0430F00020080317A8
:1015E000CB0070080319F82ACB0D4B10FF3EF22AEE
:1015F0008A1110218A150030831603132A06031D51
:10160000032B70082906031D152B0430F0008312EC
:101610002008C2002108C30070080319142BC20D52
:10162000C30D4210FF3E0D2B552B83120430F000EA
:1016300020080317CB0070080319222BCB0D4B1089
:10164000FF3E1C2B8A1110218A157008FF3A031DDA
:10165000502B0430F000031320080317C400700857
:101660000319362BC40D4410FF3E302B8316031391
:10167000290883120317C5008A1164238A150430D0
:10168000F000831203132008C2002108C300700871
:1016900003194F2BC20DC30D4210FF3E482B552B93
:1016A0000313A00A0319A10AE12AA001A1018030B5
:1016B0002106F0008030ED1B7F307002031D622B8D
:1016C0006D0820020318812BC20A0319C30A4208BD
:1016D0000317C40003132008F0002108F100F00DE7
:1016E000F10D70107008103E840000080317C5004B
:1016F0008A1164238A1583120313A00A0319A10A0D
:10170000572B6D080F3CEE00A001A101803021068F
:10171000F0008030EE1B7F307002031D912B6E08AD
:1017200020020318A32BC20A0319C30A4208031795
:10173000C400C5018A1164238A1583120313A00A09
:101740000319A10A862BA72B8A1110238A158A1147
:1017500036238A159F2C6F082F3A031D282C013041
:101760000317D1008A111A208A1583162908F00060
:101770002A08F1000A30F4000030F5008A11AB228B
:101780008A15303083162D02F200F301031CF30397
:1017900072087007A90071080318013E7307AA00B8
:1017A0008312A001A10180302106F0008030700278
:1017B000031DDC2B103020020318242C0430F00011
:1017C00020080317CB0070080319EA2BCB0D4B1030
:1017D000FF3EE42B8A1110218A1500308316031373
:1017E0002A06031DF52B70082906031D1F2C043043
:1017F000F00083122008B2002108B300700803191A
:10180000062CB20DB30D3210FF3EFF2BEB018030E2
:101810006B06F0008030103A700203181E2C32085C
:101820000317C400FF30C5008A1164238A15831290
:101830000313B20A0319B30AEB0A072C242C8312F0
:10184000A00A0319A10AD32B8A1136238A159F2CCB
:1018500083162C0803193F2C83126D08F000F00D3D
:1018600070107008103E840083162D088000840AD2
:101870008001AD018312ED0A8316AC019F2C2D0867
:101880004C3A0319482C2D084A3A0319482C692C64
:1018900083126D08F000F00D70107008103E840087
:1018A00083162D088000840A8001AD018312ED0AA1
:1018B00001300317D1008A111A208A15013003174D
:1018C000CB000130CC005430CD008A11C9208A15DC
:1018D0009F2C30302D02031C9F2C2D08393C031CFB
:1018E0009F2C2908F0002A08F1000A30F40000308B
:1018F000F5008A11AB228A15303083162D02F200D2
:10190000F301031CF30372087007A90071080318A0
:10191000013E7307AA00013083120317CB00013088
:10192000CC005C30CD008A11C9208A151A30FC0029
:10193000F830FD00FD0B9A2CFC0B9A2C000040287F
:10194000172E8312A001A101EC01EE013030031724
:10195000C400A030C5008A1149238A150317073037
:10196000C4008A111E248A1570088312AB00700807
:10197000003A031DBC2CE42C8A1109248A15700836
:101980000319E32C8A1110248A157008D9008312D8
:101990002008DA3E840070088000A00A0319A10A1A
:1019A00030300317C400DA30C5008A118B228A1543
:1019B00070080313CB007008003A031DE22C0130BD
:1019C000EC00E42CEC01AE2CEB0180306B06F00057
:1019D0008030143A70020318F32C6B08DA3E84004E
:1019E0008001EB0AE52C6C08013A031D172E8A11C1
:1019F00009248A1570080319492D8A1110248A15A3
:101A00007008D90070083A3A031D142D0130831272
:101A1000CC0002300317CB000130CC004430CD00A5
:101A20008A11C9208A15492D83124C08003A031DDA
:101A3000292D4A08F0000A30F4008A1195238A15EE
:101A4000303083165902F100710870078312CA0002
:101A5000492D4D08F0000A30F4008A1195238A15AB
:101A6000303083165902F100710870078312CD00DF
:101A7000EE0A6E08023A031D492D4A08F0003C3078
:101A8000F4008A1195238A157008CA007008CD07E2
:101A90004A2DF72C8312A001A101A001A1018030E1
:101AA0002106F00080307002031D582D10302002F6
:101AB0000318F32D0430F2002008F0002108F10093
:101AC00072080319682DF00DF10D7010FF3E612DA5
:101AD0007008C2007108C3000B30F0070318F10A48
:101AE0007008C2007108C30070080317CB008A1188
:101AF00010218A1570080313A4000030F01BFF307A
:101B0000FF3A031D852DFF307006031D882DEE2D35
:101B100080304D06F0008030240670020318EE2D50
:101B20004D082402D30001300317D1008A111A2076
:101B30008A155308EF008030D31B7F30F0008030CF
:101B40003F067002031DA62D3E0853020318CE2D3A
:101B50003E08A2003F08A3005308BE000030BE1B91
:101B6000FF30BF004108C0002008C1002008031753
:101B7000CB000030CB1BFF30CC00C530CD008A112C
:101B80003D218A150130CB000130CC000313410800
:101B90000317CD008A11C9208A15EE2D80308312DB
:101BA000D31B7F30F000803023067002031DDA2D36
:101BB000220853020318EE2D0030D31BFF303F06DE
:101BC000031DE42D3E0853060319EE2D5308A20011
:101BD0000030A21BFF30A3002008C0008312A00A1F
:101BE0000319A10A4F2DA001A101ED018A11E622DE
:101BF0008A153430FC00F130FD00FD0BFD2DFC0B8F
:101C0000FD2D0000000002300317CB000130CC0096
:101C10004E30CD008A11C9208A150D30FC00FB30F2
:101C2000FD00FD0B112EFC0B112E000000003B28C7
:021C3000182E6C
:040884000034003408
:04088800A03405345F
:02088C00003436
:0C088E00563449344B34413443340034B8
:02089A00003428
:0C089C0056346E34653473346934003413
:0408A80000340034E4
:1008AC00473472346534733468346B3461340034D7
:0208BC00003406
:0208BE00003404
:0408C000A034053427
:0208C40064349A
:0208C600643498
:0408C80000340034C4
:0C08CC00763449344B344134433400345A
:0208D8000034EA
:0208DA00643484
:0208DC000034E6
:0208DE000034E4
:0A08E0004B34523441344A340034E2
:0208EA000034D8
:1008EC004A34203469346C34693420344C34003448
:1008FC0056346E346534733465346E34613420345C
:0E090C00423472346F346A346B346134003418
:02091A000034A7
:02091C000034A5
:10091E004734453454342034543449344D344534FA
:02092E00003493
:04093000003400345B
:0209340000348D
:0209360000348B
:02093800003489
:02093A00003487
:02093C00003485
:02093E00003483
:04400E00F22F000786
:00000001FF
