:040000008A15002835
:0E000600213083120313FD00FD0B07280800B4
:06001400000000000800DE
:10001A000F3083120313FC004730FD00FD0B132839
:0A002A00FC0B132800000000080082
:1000340083120317D31B2028861121288615531BEE
:100044002528061126280615D31A2A2886102B28B7
:100054008614531A2F280610302806148316031307
:100064004518372883120616392883120612861675
:100074000A2086120317D3194128861142288615AF
:1000840053194628061147280615D3184B288610FD
:100094004C28861453185028061051280614831629
:1000A400031345185828831206165A288312061279
:1000B40086160A2086128316451C62280D206328A2
:0400C400032008000D
:1000C80083120313F801F9011030FC00710DF80DCB
:1000D800F90D7408F8027508031C750FF902031866
:1000E8007C287408F80775080318750FF9070310BA
:0A00F800F00DF10DFC0B6A28080062
:10010200831603134510831203175208D3001A20D3
:06011200831645140800ED
:100118009E28803083120317CD00B128C030CD004F
:10012800B1289430CD00B128D430CD00B12880302A
:10013800CD00B128831203174D08013A03198D2801
:100148004D08023A031992284D08033A03199528D5
:100158004D08043A031998289B284E03F0004D08CF
:10016800F0077008CD008316031345147008831236
:100178000317D3001A2083164510831203174F085C
:0A018800D3001A2083164514080066
:10019200DB28803083120317CD00EE28C030CD005B
:1001A200EE289430CD00EE28D430CD00EE288030F9
:1001B200CD00EE28831203174D08013A0319CA280D
:1001C2004D08023A0319CF284D08033A0319D228E1
:1001D2004D08043A0319D528D8284E03F0004D08DB
:1001E200F0077008CD007008D3001A20831645105E
:1001F20083120317D00150084F0784000008031927
:100202000C2950084F0784000008D2008120831275
:0E0212000317D00AFC288316031345140800B6
:10022000831203174D088D0083168C130C14831250
:060230000C08F0000800BC
:10023600013083120317CE004D08F100CD0A710874
:1002460084000008003A03193C294D088400000880
:10025600203A03193A294E084D02F1004D08840050
:100266000008F0007108840070088000CE03CE0AF2
:040276001F29080034
:10027A0083120317D0010530500203184B29500886
:10028A004F07840020308000D00A402950084F07C9
:10029A0084008001D00350084F07D1000A30F400CF
:1002AA00F5014D08F0004E08F10064207808F000CE
:1002BA007908F1003030F0070317510884007008FC
:1002CA0080000A30F400F5014D08F0004E08F100F4
:1002DA00642070080317CD007108CE000030710643
:1002EA00031D792900307006031D7C297E29D0035D
:0402FA00502908007F
:0E02FE008312031745088A0044088200080096
:10030C00013083160313B0000430F000831203177E
:10031C0048080313B4000030B41BFF30B50070085C
:10032C0003199D29B40DB50D3410FF3E9629B40A5E
:10033C000319B50A03174808CD000030CD1BFF3058
:10034C00CE00B130CF003D21B130CD001B214B0888
:10035C00CD000130CE00B130CF00C920B00A8312DD
:10036C0003174B08CD0083160313300883120317B1
:10037C00CE002030CF008C20B00A8312A001A10146
:10038C0080302106F00080307002031DCF29093027
:10039C0020020318FB2934080317CD001021700824
:1003AC0083160313AD007008403C0318F3297B300F
:1003BC002D020318F329831203174B08CD00831663
:1003CC000313300883120317CE00831603132D0872
:1003DC0083120317CF008C20B00A8312B40A0319BE
:1003EC00B50AA00A0319A10AC6290A308316B0005F
:1003FC00831203174908CD004A08CE00B130CF0054
:10040C003D214B08CD0083160313300883120317CC
:10041C00CE002030CF008C20B00AB13083120317ED
:10042C00CD001B214B08CD0083160313300883121B
:10043C000317CE00B130CF00C92002308312B407AD
:10044C000318B50AA001A10180302106F00080300C
:10045C007002031D332A0330200203184D2A34087E
:10046C000317CD001021700883160313AD0070081C
:10047C0083120317D20081208312B40A0319B50A20
:10048C008316B00A8312A00A0319A10A2A2A0800AB
:10049C00063083120313FD00FD0B522A00000800E6
:1004AC000E3083120313FD00FD0B5A2A00000800C6
:1004BC0083120317C801CA01CB011030CC000430E1
:1004CC004B0203188E2AF0300313880003174C09D3
:1004DC008316031388000A200A200F3083120805A4
:1004EC00F00070080317C90070080319882A4A081D
:1004FC00C80049080319862AC90CC913C80A7F2ADF
:10050C000430CB00CC0D4C100430CA07CB0A652A42
:06051C004808F000080091
:10052200831203174608840000080319A52A460807
:1005320084000008F1004708840071080006031DCA
:10054200A52AC60AC70A912A460884000008F000B4
:10055200470884000008F002F101031CF1030800BF
:1005620083120313FB01FA01F9018030F800F10C48
:10057200F00C031CC52A7408F90775080318750FD7
:10058200FA070318FB0A0310F01FCD2A7408FA07B2
:1005920075080318750FFB07FB0CFA0CF90CF80C25
:1005A200031CB82A7B08F3007A08F2007908F100EC
:0605B2007808F0000800CB
:1005B80083160313981690308312980083168717B2
:1005C800071383128C1EEB2A1A08F000E52A08008C
:1005D800013083120317D3001A204308643A031921
:1005E800032B43080317C800031340080317C90067
:1005F800031341080317CA000130CB0086214208C3
:10060800643A0319152B42080317C800031332086C
:100618000317C900031333080317CA000230CB00BD
:04062800862108001F
:10062C00013083120317D3001A2001300317CD00B9
:10063C000130CE003630CF00C9201A30FC00F83023
:10064C00FD00FD0B272BFC0B272B0000AD01AE0191
:10065C00A9018312EE01EF018316AA01AC018312EA
:08066C00BF01B401B501080053
:1006740083160313AD01AE01A9018312EE01EF014C
:100684008316AA01AC01AB018312BE01BF01B40100
:04069400B5010800A4
:10069800831203174608F2007208F100F20A4708AD
:1006A800F000C70A700884000008F0007108840090
:1006B800700880007108840000080319642B502B0F
:0606C8004608F0000800E6
:1006CE00831603178C1C6D2B0000672B83124608B4
:1006DE008D0047088C0083168C130C150B08F00048
:1006EE008B1355308D00AA308D008C14F01B812B8E
:0A06FE008B13822B8B170C110800E0
:100708005E22700883160313EF000F30831208056A
:10071800F0000319912B4E22892B83166F08F000E5
:020728000800C7
:0A072A00FF30831603138800080057
:10073400831203137008F100F0010830FC00710803
:10074400F40C0318A92BFC0BA22BF10100340310A9
:10075400AE2BF40C0318F107F10CF00CFC0BAB2BD3
:0207640008008B
:100766007F218A110A128000840AC40A0319C50A65
:08077600F003031DB32B080082
:10077E0083160313861206120610861006118611B2
:10078E0083128612061286110611861006100D208F
:10079E000D200D208614061486160A2086120D20B2
:1007AE0086160A2086120D2086160A2086120D2025
:1007BE00061086160A2086120D2086160A2086122C
:1007CE008610861586160A2086120D2086110614AE
:1007DE0086160A208612061086160A2086120D200C
:1007EE0086160A208612061486160A2086120D20F8
:1007FE00061086160A20861286150615861406140D
:0E080E0086160A2086120D2083164514080057
:0E081C000030831203138C1A0130F000080024
:10082A00831203131A088316AF008312981C1F2C15
:0C083A001812181683162F08F000080092
:100846003C30831203139F05C0309F0083166F0848
:10085600F000F00D7010F00D7010700883129F04F8
:1008660083169F1783121F1456229F149F1C3D2C1C
:100876000000392C1F101E08F100F00183161E0817
:08088600F0040030F104080049
:10095800203084004E3083120313F0004730031711
:10096800C4000430C500B323A030840009308312CA
:100978000313F00095300317C4000430C500B323F7
:100988006E308400023083120313F000AA3003177C
:10099800C4000430C500B323A93084000630831294
:1009A8000313F0009E300317C4000430C500B323BE
:0209B800080035
:101000008A11AC248A158A1195238A15803003171A
:1010100088008901FF30031385008A11BF238A15D8
:10102000013083120317D3008A111A208A150C305D
:101030000317D3008A111A208A1507308316EF0090
:101040008A1123248A1570088312A20003178713BC
:101050008813333083160313990018158A11DC2284
:101060008A158230FC00DD30FD00FD0B3528FC0BBD
:1010700035280000000083122208003A031D4C2C82
:10108000831201300317D3008A111A208A15013008
:101090000317CD000130CE002B30CF008A11C920BC
:1010A0008A152D082B3A031963282D082D3A0319A8
:1010B00063282D082E3A031963282D082F3A0319A7
:1010C00063282D08AE00AD018A1184238A157008AB
:1010D000AD000730EF008A1123248A1570088312AF
:1010E000A2007008003A031976287A2883162D0882
:1010F0000319642883122208003A031980284B2C14
:10110000B22831308316AD00F3283430AD00F32817
:101110003730AD00F3284A30AD00F3283230AD004F
:10112000F3283530AD00F3283830AD00F3283030E7
:10113000AD00F3283330AD00F3283630AD00F3288E
:101140003930AD00F3284C30AD00F3282B30AD0022
:10115000F3282D30AD00F3282E30AD00F3282F30CA
:10116000AD00F32883162D08013A031981282D08B4
:10117000023A031985282D08033A031988282D08F7
:10118000043A03198B282D08053A03198E282D08D7
:10119000063A031991282D08073A031994282D08B7
:1011A000083A031997282D08093A03199A282D0897
:1011B0000A3A03199D282D080B3A0319A0282D0877
:1011C0000C3A0319A3282D080D3A0319A6282D0857
:1011D0000E3A0319A9282D080F3A0319AC282D0837
:1011E000103A0319AF282E08003A031D0B292D08C9
:1011F0002B3A031908292D082D3A031908292D081F
:101200002E3A031908292D082F3A031908290B290A
:101210008A1116238A1583162D082B3A031DC62919
:101220000130AA005E294130AE00BF294430AE0033
:10123000BF294730AE00BF295630AE00BF2942302B
:10124000AE00BF294530AE00BF294830AE00BF29EF
:101250004B30AE00BF294330AE00BF294630AE0050
:10126000BF294930AE00BF295930AE00BF294D30EB
:10127000AE00BF295030AE00BF295330AE00BF29A9
:101280005730AE00BF294E30AE00BF295130AE00FE
:10129000BF295430AE00BF295830AE00BF294F30AF
:1012A000AE00BF295230AE00BF295530AE00BF2975
:1012B0005A30AE00BF290130AC00BF292E08313AA8
:1012C000031913292E08343A031916292E08373A20
:1012D000031919292E084A3A03191C292E08323AF3
:1012E00003191F292E08353A031922292E08383AE6
:1012F000031925292E08303A031928292E08333AD4
:1013000003192B292E08363A03192E292E08393AAB
:10131000031931292E084C3A031934292E08413A71
:10132000031937292E08443A03193A292E08473A57
:1013300003193D292E08563A031940292E08423A2E
:10134000031943292E08453A031946292E08483A1D
:10135000031949292E084B3A03194C292E08433A00
:1013600003194F292E08463A031952292E08493AE3
:10137000031955292E08593A031958295B292C08B5
:101380000319C5298A1116238A154A2C83162D089C
:101390002D3A031DF32901308312BE006E08F000C0
:1013A0006F08F1000A30F4000030F5008A11B12214
:1013B0008A15303083162E02F200F301031CF3036A
:1013C0007208F00773080318013EF10770088312D2
:1013D000EE007108EF008316AE0170088312B100B1
:1013E000EE01EF014A2C83162D082E3A031DA02B87
:1013F000013083120317D3008A111A208A15023094
:101400000317CD000130CE002330CF008A11C92050
:101410008A151A30FC00F830FD00FD0B0D2AFC0B7C
:101420000D2A000083123E080319B52A6E08F00049
:101430006F08F1000A30F4000030F5008A11B12283
:101440008A15303083162E02F200F301031CF303D9
:10145000720870078312EE0071080318013E7307CB
:10146000EF0001300317D3008A111A208A15A0015A
:10147000A10180302106F00080307002031D422A55
:10148000103020020318B12A0430F000200803179E
:10149000CD0070080319502ACD0D4D10FF3E4A2A89
:1014A0008A1110218A15003003136F06031D5A2A72
:1014B00070086E06031DAB2A0430F2002008F0000D
:1014C0002108F100720803196A2AF00DF10D70105D
:1014D000FF3E632A0B30F0070318F10A7008A900D9
:1014E0007108AA0070080317C60003133108031718
:1014F000C7008A1167238A15023083120313290754
:10150000F0002A080318013EF1007008A9007108D4
:10151000AA0070080317C600A630C7008A11672307
:101520008A1583120313A90A0319AA0A29080317A3
:10153000C600A430C7008A1167238A1583120313DB
:10154000A90A0319AA0A29080317C600A830C70068
:101550008A1167238A1583120313A00A0319A10AAB
:10156000392A8A113A238A159F2B303083162E028E
:10157000031C992B2E08393C031C992B83126E08EF
:10158000F0006F08F1000A30F4000030F5008A1115
:10159000B1228A15303083162E02F200F301031CAB
:1015A000F303720870078312EE0071080318013EFE
:1015B0007307EF00A001A10180302106F000803008
:1015C0007002031DE52A103020020318132B04308B
:1015D000F00020080317CD0070080319F32ACD0D81
:1015E0004D10FF3EED2A8A1110218A150030031399
:1015F0006F06031DFD2A70086E06031D0F2B0430B5
:10160000F0002008B4002108B500700803190D2B64
:10161000B40DB50D3410FF3E062B0130BF00A00AFB
:101620000319A10ADC2A3F08003A031D952B043058
:10163000F0006C080317C60070080319232BC60DB1
:101640004610FF3E1D2B03136E080317C7008A11B7
:1016500067238A150430F000831203136C08A90075
:101660000030A91BFF30AA00700803193C2BA90DFC
:10167000AA0D2910FF3E352BA001A10180302106C3
:10168000F00080308316AB1B7F307002031D4B2BA4
:101690002B088312200203186B2B8312A90A03194B
:1016A000AA0A29080317C60003132008F00021081E
:1016B000F100F00DF10D70107008103E840000086C
:1016C0000317C7008A1167238A1583120313A00A20
:1016D0000319A10A3E2B83162B080F3CA900831285
:1016E000A001A10180302106F00080308316A91BE3
:1016F0007F307002031D7F2B2908831220020318FC
:10170000922B8312A90A0319AA0A29080317C600F3
:10171000C7018A1167238A1583120313A00A0319CC
:10172000A10A722B8312EC0A982B8A1116238A15B0
:101730009C2B8A1116238A158A113A238A154A2C62
:1017400083162D082F3A031DD82B0130831203175F
:10175000D3008A111A208A150430F0006E08B400F4
:101760006F08B50070080319BA2BB40DB50D34100D
:10177000FF3EB32BA001A10180302106F000803094
:101780007002031DC52B0F3020020318D72B34081D
:101790000317C600C7018A1167238A158312031332
:1017A000B40A0319B50AA00A0319A10ABC2B4A2CD2
:1017B00083162A080319EB2B2B08F000F00D70108C
:1017C0007008103E84002E088000840A8001AE015B
:1017D000AB0AAA014A2C2E084C3A0319F42B2E0806
:1017E0004A3A0319F42B132C2B08F000F00D70105B
:1017F0007008103E84002E088000840A8001AE012B
:10180000AB0A013083120317D3008A111A208A15FC
:1018100001300317CD000130CE005530CF008A11C2
:10182000C9208A154A2C30302E02031C4A2C2E085F
:10183000393C031C4A2C83126E08F0006F08F1003B
:101840000A30F4000030F5008A11B1228A153030D8
:1018500083162E02F200F301031CF30372087007D3
:101860008312EE0071080318013E7307EF00013088
:101870000317CD000130CE005D30CF008A11C920A2
:101880008A151A30FC00F830FD00FD0B452CFC0BCE
:10189000452C00004028CA2D8312A001A101ED01B2
:1018A0008316A901303083120317C600A030C70089
:1018B0008A114C238A15073083160313EF008A110F
:1018C00023248A1570088312A2007008003A031DB1
:1018D0006A2C922C8A110E248A1570080319912CF7
:1018E0008A1115248A157008DA0083122008DB3E5D
:1018F000840070088000A00A0319A10A3030031781
:10190000C600DB30C7008A1191228A1570080313C4
:10191000D4007008003A031D902C0130ED00922C89
:10192000ED015B2CCB0180304B06F0008030143A87
:1019300070020318A12C4B08DB3E84008001CB0A07
:10194000932C6D08013A031DCA2D8A110E248A15A5
:1019500070080319F92C8A1115248A157008DA0009
:1019600070083A3A031DC22C01308312CC000230B9
:101970000317CD000130CE004430CF008A11C920BA
:101980008A15F92C83124C08003A031DD72C4A08FB
:10199000F0000A30F4008A119A238A153030831639
:1019A0005A02F100710870078312CA00F92C4D0821
:1019B000F0000A30F4008A119A238A153030831619
:1019C0005A02F100710870078312CD008316A90A2C
:1019D0002908023A031DF92C83124A08F0003C3012
:1019E000F4008A119A238A157008CA007008CD077E
:1019F000FA2CA52C8312A001A101A001A101803025
:101A00002106F00080307002031D082D10302002E6
:101A10000318A52D0430F2002008F0002108F10081
:101A200072080319182DF00DF10D7010FF3E112DE5
:101A30007008A9007108AA000B30F0070318F10A1A
:101A40007008A9007108AA0070080317CD008A1158
:101A500010218A1570080313B1000030F01BFF300D
:101A6000FF3A031D352DFF307006031D382DA02DC4
:101A700080304D06F0008030310670020318A02D32
:101A80004D083102D30001300317D3008A111A2008
:101A90008A1553088316AD0080308312D31B7F3024
:101AA000F000803041067002031D582D400853029B
:101AB0000318802D4008B2004108B3005308C0004D
:101AC0000030C01BFF30C1004308C2002008C30023
:101AD00020080317CD000030CD1BFF30CE00C630EC
:101AE000CF008A113D218A150130CD000130CE0092
:101AF000031343080317CF008A11C9208A15A02DAC
:101B000080308312D31B7F30F000803033067002A8
:101B1000031D8C2D320853020318A02D0030D31B57
:101B2000FF304106031D962D400853060319A02DD2
:101B30005308B2000030B21BFF30B3002008C200CF
:101B40008312A00A0319A10AFF2CA001A101831688
:101B5000AB018A11EC228A153430FC00F130FD0013
:101B6000FD0BB02DFC0BB02D000000000230031760
:101B7000CD000130CE004E30CF008A11C9208A1529
:101B80000D30FC00FB30FD00FD0BC42DFC0BC42D03
:081B9000000000003B28CB2DF2
:04088E0000340034FE
:02089200003430
:0C089400563449344B34413443340034B2
:0408A00000340034EC
:0C08A40056346E3465347334693400340B
:0208B000003412
:0408B200A034053435
:0408B60000340034D6
:1008BA00473472346534733468346B3461340034C9
:0208CA000034F8
:0208CC000034F6
:0408CE00A034053419
:0208D20064348C
:0208D40064348A
:0C08D600763449344B3441344334003450
:0208E2000034E0
:0208E4000034DE
:0208E6000034DC
:0208E8000034DA
:0A08EA004B34523441344A340034D8
:0208F4000034CE
:0208F600643468
:1008F8004A34203469346C34693420344C3400343C
:1009080056346E346534733465346E34613420344F
:0E091800423472346F346A346B34613400340C
:0209260000349B
:02092800003499
:10092A004734453454342034543449344D344534EE
:02093A00003487
:02093C00003485
:02093E00003483
:02094000003481
:0209420000347F
:0209440000347D
:0209460000347B
:0409480069340034DA
:04094C004D340034F2
:040950006E340034CD
:040954000034003437
:04400E00F22F000786
:00000001FF
