:020000000C2BC7
:06000600000000000800EC
:0E000C00213083120313FD00FD0B0A280800AB
:10001A000F3083120313FC004730FD00FD0B132839
:0A002A00FC0B132800000000080082
:1000340083160313EC1B21288312861123288312B1
:10004400861583166C1B2928831206112B2883120C
:1000540006158316EC1A312883128610332883126E
:10006400861483166C1A3928831206103B288312CF
:100074000614831660184128831206164328831237
:1000840006128616032086128316EC194C28831256
:1000940086114E288312861583166C1954288312F0
:1000A40006115628831206158316EC185C28831251
:1000B40086105E288312861483166C1864288312B3
:1000C4000610662883120614831660186C2883129F
:1000D40006166E28831206128616032086128316CD
:0C00E400601C76280D20772806200800FC
:1000F000831603136808F2006A086B0403199B282F
:100100000130EA02031CEB037208F100F20A6908ED
:10011000F000E90A700884000008F000710884000B
:1001200070088000710884000008F0007008031D4A
:100130009A289B287C286A08F0006B08F10001309F
:10014000EA02031CEB03700871040319AC2872085F
:0E01500084008001F20A9B286808F000080075
:0E015E008316031362088A00610882000800FD
:10016C0083120313F801F9011030FC00710DF80D26
:10017C00F90D7408F8027508031C750FF9020318C1
:10018C00CE287408F80775080318750FF9070310C3
:0A019C00F00DF10DFC0BBC2808006B
:1001A6000E3083120313FD00FD0BD7280000080054
:1001B6008316031360106808EC001A208316601477
:0201C60008002F
:1001C80083160313981690308312980083168717A6
:1001D800071383128C1EF3281A08F000ED28080074
:1001E800831203131A08F100981CFC281812181619
:0601F8007108F000080090
:1001FE008316031386120612061086100611861138
:10020E0083128612061286110611861006100D2014
:10021E000D200D20861406148616032086120D203E
:10022E008616032086120D208616032086120D20B8
:10023E0006108616032086120D20861603208612BF
:10024E00861086158616032086120D20861106143A
:10025E0086160320861206108616032086120D209F
:10026E0086160320861206148616032086120D208B
:10027E000610861603208612861506158614061499
:0E028E008616032086120D20831660140800C9
:10029C00103083160313E8006308E90083126D081D
:1002AC008316EA000030EA1BFF30EB007820831243
:0402BC00ED0A08003F
:1002C000831203137008F100F0010830FC0071087C
:1002D000F40C03186F29FC0B6829F101003403109A
:1002E0007429F40C0318F107F10CF00CFC0B7129C4
:0202F000080004
:0E02F2000030831203138C1A0130F000080054
:100300009229803083160313E300A529C030E3004F
:10031000A5299430E300A529D430E300A529803035
:10032000E300A529831603136308013A0319812901
:100330006308023A031986296308033A03198929D5
:100340006308043A03198C298F296403F0006308B9
:10035000F0077008E3007008EC001A2083166010A4
:10036000E60166086507840000080319BF296608CE
:10037000650784000008E800DB20E60AB129601464
:02038000080073
:1003820083160313E601053066020318CF296608B7
:100392006507840020308000E60AC42966086507E4
:1003A20084008001E60366086507E7000A30F4006E
:1003B200F5016308F0006408F100B6207808F00047
:1003C2007908F1003030F00783166708840070085E
:1003D20080000A30F400F5016308F0006408F100BF
:1003E200B62070088316E3007108E400003071063D
:1003F200031DFD2900307006031D002A022AE603B0
:04040200D4290800F1
:10040600831603136308F2007208F100F20A640807
:10041600F000E40A700884000008F0007108840007
:100426007008800071088400000803191B2A072A37
:060436006308F00008005D
:10043C00831603136308831203178D0083168C1322
:0A044C000C1483120C08F0000800E5
:1004560083160313E4016408630784000008031984
:100466003C2A6408630784000008E800DB20E40AED
:040476002E2A080022
:10047A0083120313FD01F80170080319003474068E
:10048A00FA00FA1BFD09FB01F41F4D2AF409F40ACC
:10049A00F01F512AF009F00A70087404FA00FA1BD6
:1004AA00752A7408F802F00D700DF80D7408F80733
:1004BA00F00D0630FC00700DF80D74087018F80283
:1004CA00701CF807F00DFC0B602A701CF8077B18EB
:1004DA00832AFD1F0034F009F00AF809F80A0034EB
:1004EA00F41F802AF01B7D2A7008F800F0016E2A9A
:1004FA00F001F00A0034F009FB0A562AF80A7408D7
:10050A007802031D6E2AF801F00AF01F6E2AFF34E2
:02051A000800D7
:10051C00831603136308840000080319A22A6308D6
:10052C0084000008F1006408840071080006031DB3
:10053C00A22AE30AE40A8E2A630884000008F00069
:10054C00640884000008F002F101031CF1030800A8
:10055C00831603136308F2007208F000F20A7008A5
:10056C00840000080319BB2AB22A63087202F00047
:0C057C000130F002F101031CF103080043
:10058800AF208A110A128000840AE10A0319E20ADC
:08059800F003031DC42A080052
:1005A000C330831203139F05C0309F008316630876
:1005B000F000F00D7010F00D7010700883129F04A1
:1005C00083169F1783121F14D3209F149F1CEA2A9F
:1005D0000000E62A1F101E08F100F00183161E0815
:0805E000F0040030F1040800F2
:0A05E800FF3083160313880008009B
:1005F200FF3083160313DD00FF30DE00FF30DF0023
:10060200FF30C33083129F05C0309F0083169F17AF
:0606120083121F14080012
:100618009426F4228030031788008901FF300313E1
:100628008500FF200130EC001A200C308316EC0006
:100638001A20F92207308316E300D02270088312AB
:10064800B3000317871388133330831603139900F5
:100658001815E4208230FC00DD30FD00FD0B322B44
:10066800FC0B322B0000000083123308013A031DF3
:100678003E2B3F2EB101B201B401BE01C830831632
:10068800E3003530E40003227921700803197A2B3E
:10069800F4207008EE003108A03E84007008800045
:1006A800B10A0319B20AC8308316E300A030E40087
:1006B8008E2270088312AB007008003A031D782B55
:1006C8000130B40001308316E3000130E40020302B
:1006D800E50080211A30FC00F830FD00FD0B722B7C
:1006E800FC0B722B00007B2B8312B401482B831266
:1006F8003408013A031D3F2E01308316E300013010
:10070800E4002630E5008021792170080319C02B08
:10071800F4207008EE0070083A3A031D962B013059
:10072800AC00C02B2C08003A031DA62B2F08F000A4
:100738000A30F400602130306E02F1007108700751
:10074800AF00C02B3008F0000A30F40060213030D0
:100758006E02F10071087007B000BE0A3E08023A46
:10076800031DC02B2F08F0003C30F40060217008F6
:10077800AF007008B007C12B802BB101B201B101E5
:10078800B20180303206F00080307002031DCE2B9B
:10079800103031020318B52C0430F0003108AD00D8
:1007A8003208AE0070080319DE2BAD0DAE0D2D100A
:1007B800FF3ED72B0B30AD070318AE0A310883165E
:1007C800E300831232088316E400B430E500C12147
:1007D8000230E3000130E400B430E50080218312E8
:1007E8002D088316E3001E2270080313BF00003093
:1007F800F01BFF30FF3A031D032CFF307006031D6A
:10080800062CB02C80303006F00080303F06700295
:100818000318B02C30083F02D10001308316EC00D9
:100828001A2051088316E3000030E31BFF30E40070
:10083800B430E500C1210130E3000130E400B430F8
:10084800E50080210230E3000130E4005230E50089
:1008580080211A30FC00F830FD00FD0B312CFC0B18
:10086800312C000080308312D11B7F30F0008030A3
:100878004E067002031D422C4D0851020318822CAB
:100888004D08CF004E08D0005108CD000030CD1BD8
:10089800FF30CE006608D8000430F0003108831617
:1008A800E300700803195C2CE30D6310FF3E562C1F
:1008B8001E2270080313E60070088316E300003058
:1008C800E31BFF30E400B430E500C1210130E30050
:1008D8000130E400B430E50080210230E30001304B
:1008E800E4006730E50080211A30FC00F830FD0094
:1008F800FD0B7C2CFC0B7C2C0000B02C8030831270
:10090800D11B7F30F000803050067002031D8E2C02
:100918004F0851020318B02C0030D11BFF304E068F
:10092800031D982C4D0851060319B02C5108CF000F
:100938000030CF1BFF30D0000430F00031088316A0
:10094800E30070080319AC2CE30D6310FF3EA62CDE
:100958001E2270080313D8008312B10A0319B20AC1
:10096800C52BB101B201ED01B101B20180303206EF
:10097800F00080307002031DC32C103031020318C0
:10098800242E01308316EC001A2001308316E30070
:100998000130E4005930E5008021831231088316C4
:1009A800E300831232088316E400B430E500C12165
:1009B8000230E3000130E400B430E50080210D305E
:1009C800FC00FB30FD00FD0BE72CFC0BE72C0000C6
:1009D80000000130EC001A200430F00031088316C2
:1009E800E30070080319FC2CE30D6310FF3EF62C9E
:1009F8001E2270080313E50070086606031DBA2D51
:100A080030306607F00070088316DC007008E300D9
:100A18004E2120308316E3004E21C1010130C10070
:100A280080300A3AF000803041067002031C402DE5
:100A38000430F00031088316E30070080319282DEC
:100A4800E30D6310FF3E222D831241088316E3074E
:100A58001E2270080313EF007008FF3A031D352D9E
:100A6800402D6D08103E84006F0880006F088316C3
:100A7800E3004E21C10A142D0430F000310883161A
:100A8800E300700803194C2DE30D6310FF3E462D5B
:100A98000B30E3071E2270080313BF0030087002F2
:100AA800D100510803196F2D0A30F4005108F000E5
:100AB8003D227808F0003030F00770088316DC001B
:100AC8007008E3004E210A30F4005108F0003D227E
:100AD8007008D100552D4D308316E3004E21693042
:100AE8008316E3004E216E308316E3004E2110304A
:100AF8008316E300AE2270088312BE00013083160D
:100B0800EC001A2001308316E3000130E400403085
:100B1800E50080218312B101B20180303206F00075
:100B28008030BE1B7F307002031D9C2D3E083102B1
:100B38000318B22D3108103E840000088316E30024
:100B4800E4010030E400B430E500C121B430E8002D
:100B5800DB208312B10A0319B20A912D2730FC0059
:100B6800F530FD00FD0BB62DFC0BB62D65085806BB
:100B7800031D1F2E65088316E3000030E31BFF30BA
:100B8800E400B430E500C1210230E3000130E400A4
:100B9800B430E50080214230E3002B228312C101EA
:100BA8000130C10080300A3AF000803041067002FE
:100BB800031CF92D0430F00031088316E300700897
:100BC8000319EA2DE30D6310FF3EE42D831241085B
:100BD8008316E3071E2270080313EF0070088316BC
:100BE800E3002B228312C10AD62D0430F00031080D
:100BF8008316E30070080319052EE30D6310FF3E0A
:100C0800FF2D0B30E3071E2270080313BF003008C6
:100C1800F0027008D10070088316E3000030E31B6F
:100C2800FF30E400B430E500C121B430E3002B22EA
:100C38004430E3002B228312B10A0319B20ABA2CFA
:100C48001A30FC00F830FD00FD0B282EFC0B282E76
:100C5800000001308316E3000130E4004830E5006D
:100C680080210D30FC00FB30FD00FD0B392EFC0B04
:0A0C7800392E00000000382B402E3A
:100D2800203084004E3083120313F00046308316BF
:0A0D3800E1000630E200C4220800CA
:0C0C8C0062345234453441344B3400349F
:0A0C9800503441344A34443400342F
:020CA2006434B8
:020CA40000341A
:040CA60000340034E2
:020CAA00003414
:020CAC00003412
:040CAE0000340034DA
:020CB20000340C
:020CB40000340A
:100CB6004734453454342034543449344D3445345F
:020CC6000034F8
:020CC8000034F6
:020CCA000034F4
:020CCC000034F2
:020CCE000034F0
:040CD0002034003498
:080CD4004D3469346E34003424
:0A0CDC004B34523441344A340034E2
:040CE600A0340534FD
:040CEA00A0340534F9
:020CEE000034D0
:0C0CF000503472346F34623461340034CC
:020CFC0064345E
:100CFE0042346F346734643461346E3420344B3490
:080D0E006F346E346A340034C6
:020D16000034A7
:020D1800643441
:0C0D1A00563449346B34613463340034C7
:020D2600003497
:04400E00F22F000786
:00000001FF
