:02000000602B73
:0E000600213083120313FD00FD0B07280800B4
:06001400000000000800DE
:10001A000F3083120313FC004730FD00FD0B132839
:0A002A00FC0B132800000000080082
:1000340083120313ED1B20288611212886156D1BBE
:100044002528061126280615ED1A2A2886102B289D
:1000540086146D1A2F2806103028061460183428C8
:1000640006163528061286160A208612ED193C2833
:1000740086113D2886156D1941280611422806155A
:10008400ED1846288610472886146D184B2806104C
:100094004C28061460185028061651280612861695
:1000A4000A208612601C58280D20592803200800B5
:1000B40083120313F801F9011030FC00710DF80DDF
:1000C400F90D7408F8027508031C750FF90203187A
:1000D40072287408F80775080318750FF9070310D8
:0A00E400F00DF10DFC0B6028080080
:1000EE008312031360106C08ED001A2060140800D0
:1000FE009128803083120313E700A428C030E70054
:10010E00A4289430E700A428D430E700A428803037
:10011E00E700A428831203136708013A0319802805
:10012E006708023A031985286708033A03198828D5
:10013E006708043A03198B288E286803F0006708B5
:10014E00F0077008E70060147008ED001A206010C8
:0A015E006908ED001A206014080083
:10016800C628803083120313E700D928C030E7007F
:10017800D9289430E700D928D430E700D92880302E
:10018800E700D928831203136708013A0319B52831
:100198006708023A0319BA286708033A0319BD2801
:1001A8006708043A0319C028C3286803F0006708E1
:1001B800F0077008E7007008ED001A206010EA01E7
:1001C8006A086907840000080319F2286A086907A1
:1001D80084000008EC007720EA0AE428601408008C
:1001E80083120313670803178D0083168C130C14EE
:0801F80083120C08F00008005E
:1002000083120313E801E9016708F2006708F300AD
:10021000720884000008203A031D13296808690445
:10022000031D132920290130E8000030E90072087D
:1002300084000008F0007308840070088000F30A4E
:100240007208F100F20A710884000008003A031DE8
:0802500008296708F00008000E
:1002580083120313EA0105306A0203183A296A086F
:100268006907840020308000EA0A2F296A08690794
:1002780084008001EA036A086907EB000A30F40089
:10028800F5016708F0006808F1005A207808F000C6
:100298007908F1003030F0076B088400700880009E
:1002A8000A30F400F5016708F0006808F1005A20E8
:1002B8007008E7007108E80000307106031D662920
:1002C80000307006031D69296B29EA033F290800DD
:1002D800013083120313DB000430F0006308AC0024
:1002E8000030AC1BFF30AD00700803198029AC0D3D
:1002F800AD0D2C10FF3E7929AC0A0319AD0A63082D
:10030800E7000030E71BFF30E800A030E9002C21AF
:10031800A030E70000217008E9006608E700013016
:10032800E800B420DB0A6608E7005B08E800203034
:10033800E9007F20DB0AAF01B00180303006F00011
:1003480080307002031DAA2909302F020318C92919
:100358002C08E700F42070080313DE007008403C06
:100368000318C2297B305E020318C2296608E70019
:100378005B08E8005E08E9007F20DB0AAC0A031985
:10038800AD0AAF0A0319B00AA1290A30DB006408D4
:10039800E7006508E800A030E9002C216608E700BE
:1003A8005B08E8002030E9007F20DB0AA030E70086
:1003B80000217008E9006608E7005B08E800B4203F
:1003C8000230AC070318AD0AAF01B0018030300627
:1003D800F00080307002031DF32903302F02031848
:1003E800062A2C08E700F42070080313DE007008C2
:1003F800EC007720AC0A0319AD0ADB0AAF0A03192F
:06040800B00AEA29080019
:10040E000E3083120313FD00FD0B0B2A00000800B3
:0E041E00831203135D088A005C088200080048
:10042C00831203131A08F100981C1E2A18121816AE
:06043C007108F000080049
:10044200013083120313ED001A202E08643A0319B7
:10045200332A2E08E3002A08E4002B08E5000130C5
:10046200E6006C212308643A0319402A2308E300BA
:100472002108E4002208E5000230E6006C210800B1
:10048200831203137008F100F0010830FC007108B8
:10049200F40C0318502AFC0B492AF1010034031012
:1004A200552AF40C0318F107F10CF00CFC0B522A3C
:0204B200080040
:0E04B4000030831203138C1A0130F000080090
:1004C200831203136108F2007208F100F20A620853
:1004D200F000E20A700884000008F000710884004D
:1004E200700880007108840000080319792A652ABF
:0604F2006108F0000800A3
:1004F8008316031398169030831298008316871773
:10050800071383128C1E8B2A1A08F000852A08000C
:10051800831203136108840000080319A02A6108E4
:1005280084000008F1006208840071080006031DB9
:10053800A02AE10AE20A8C2A610884000008F00077
:10054800620884000008F002F101031CF1030800AE
:10055800831603178C1CB22A0000AC2A83120313DB
:10056800610803178D000313620803178C008316B4
:100578008C130C150B08F0008B1355308D00AA3026
:100588008D008C14F01BCA2A8B13CB2A8B170C11E5
:02059800080059
:10059A00C330831203139F05C0309F006108F00027
:1005AA00F00D7010F00D701070089F0483169F17DD
:1005BA0083121F1407229F149F1CE52A0000E12AB8
:1005CA001F101E08F100F00183161E08F004003007
:0405DA00F104080020
:1005DE00FF3083120313C400FF30C500FF30C60086
:1005EE00FF30C3309F05C0309F0083169F178312C4
:0405FE001F140800BE
:10060200831603138612061206108610061186112F
:1006120083128612061286110611861006100D200C
:100622000D200D208614061486160A2086120D202F
:1006320086160A2086120D2086160A2086120D20A2
:10064200061086160A2086120D2086160A208612A9
:100652008610861586160A2086120D20861106142B
:1006620086160A208612061086160A2086120D2089
:1006720086160A208612061486160A2086120D2075
:10068200061086160A20861286150615861406148A
:0C06920086160A2086120D206014080055
:0A069E00FF308316031388000800E4
:1006A8000F228A110A128000840ADC0A0319DD0A63
:0806B800F003031D542B0800A0
:1006C00068254F238030031788008901FF3003130A
:1006D000850001230130ED001A202030E1000230B6
:1006E000E200AC22213083120313E1004B30E20020
:1006F000AC22223083120313E1004930E200AC2225
:10070000233083120313E1004D30E200AC222B3082
:1007100083120313E1000A30E200AC222C30831272
:100720000313E1004D30E200AC222D30831203139D
:10073000E1006930E200AC222E3083120313E100A5
:100740006E30E200AC22303083120313E10003303C
:10075000E200AC22313083120313E1004630E200A4
:10076000AC22323083120313E1004930E200AC22A4
:10077000333083120313E1004E30E200AC223430F8
:1007800083120313E1004B30E200AC2235308312B8
:100790000313E1004930E200AC223B308312031323
:1007A000E1001930E200AC223C3083120313E10077
:1007B0004D30E200AC223D3083120313E10069307A
:1007C000E200AC223E3083120313E1006E30E200FF
:1007D000AC220C3083120313ED001A20EF220730F5
:1007E000E100CD2270088312A0000317871388133D
:1007F000333083160313990018157C228230FC00D5
:10080000DD30FD00FD0B022CFC0B022C0000000073
:100810002008013A031D0D2C3D2DAF01B001B90197
:10082000BA01C830E1003B30E20061225A22700870
:100830000319342C16227008DF002F08B43E840000
:1008400070088000AF0A0319B00AC830E100B43064
:10085000E2008C227008B3007008003A031D332CAC
:100860000130B900352CB901162C3908013A031DA5
:100870003D2D5A2270080319712C16227008DF00D2
:1008800070083A3A031D472C0130B200712C32082F
:10089000003A031D572C3108F0000A30F4004122C1
:1008A00030305F02F10071087007B100712C34081C
:1008B000F0000A30F400412230305F02F10071088C
:1008C0007007B400BA0A3A08023A031D712C3108C5
:1008D000F0003C30F40041227008B1007008B40709
:1008E000722C392CAF01B001AF01B001803030065D
:1008F000F00080307002031D7F2C10302F0203188F
:100900001E2D0430F2002F08F0003008F1007208AC
:1009100003198F2CF00DF10D7010FF3E882C70081C
:10092000B7007108B8000B30F0070318F10A70081F
:10093000B7007108B8007008E700F42070080313CE
:10094000B6000030F01BFF30FF3A031DA92CFF302A
:100950007006031DAC2C1A2D80303406F000803058
:100960003606700203181A2D34083602B50001301D
:10097000ED001A203508DE008030B51B7F30F00016
:1009800080302B067002031DC72C2A08350203187D
:10099000EE2C2A08A1002B08A2003508AA0000307E
:1009A000AA1BFF30AB002E08A3000430F0002F0874
:1009B000E70070080319E02CE70D6710FF3EDA2C02
:1009C000F42070080313AE007008E7000030E71B46
:1009D000FF30E8004730E9002C211A2D8030B51B8C
:1009E0007F30F000803022067002031DF92C2108B0
:1009F000350203181A2D0030B51BFF302B06031DDE
:100A0000032D2A08350603191A2D3508A1000030D8
:100A1000A11BFF30A2000430F0002F08E70070088F
:100A20000319162DE70D6710FF3E102DF4207008F6
:100A30000313A300AF0A0319B00A762CAF01B0016B
:100A4000A40121223430FC00F130FD00FD0B262DE5
:100A5000FC0B262D000000000230E7000130E8000A
:100A60002530E900B4200D30FC00FB30FD00FD0B0B
:0E0A7000372DFC0B372D00000000082C3E2D0A
:100AD00020308400243083120313F0004430DC0003
:080AE0000530DD00542308007D
:020A8800003438
:040A8A00A03405345B
:020A8E006434CE
:020A9000003430
:0A0A92004B34523441344A3400342E
:040A9C00A034053449
:040AA00000340034EA
:020AA4006434B8
:040AA60000340034E4
:020AAA00003416
:020AAC00003414
:020AAE006434AE
:020AB000003410
:020AB20000340E
:020AB40000340C
:040AB60000340034D4
:020ABA00003406
:020ABC00003404
:100ABE004734453454342034543449344D34453459
:020ACE000034F2
:04400E00F22F000786
:00000001FF
