:02000000BB291A
:0E000600213083120313FD00FD0B07280800B4
:06001400000000000800DE
:10001A000F3083120313FC004730FD00FD0B132839
:0A002A00FC0B132800000000080082
:1000340083120313DB1B20288611212886155B1BE2
:100044002528061126280615DB1A2A2886102B28AF
:1000540086145B1A2F2806103028061452183428E8
:1000640006163528061286160A208612DB193C2845
:1000740086113D2886155B1941280611422806156C
:10008400DB1846288610472886145B184B28061070
:100094004C280614521850280616512806128616A3
:1000A4000A208612521C58280D20592803200800C3
:1000B4008312031352105A08DB001A20521408004A
:1000C4007428803083120313D5008728C030D500EC
:1000D40087289430D5008728D430D50087288030ED
:1000E400D5008728831203135508013A031963289E
:1000F4005508023A031968285508033A03196B286E
:100104005508043A03196E2871285603F00055085F
:10011400F0077008D5007008DB001A205210D801CF
:1001240058085707840000080319A02858085707DF
:1001340084000008DA005A20D80A922852140800D1
:10014400063083120313FD00FD0BA62800000800EF
:1001540083120313D501D701D8011030D90004301C
:1001640058020318D628F0308800590983168800ED
:100174000A200A200F3083120805F0007008D60008
:1001840070080319D0285708D50056080319CE283B
:10019400D60CD613D50AC7280430D800D90D591067
:0E01A4000430D707D80AB1285508F00008002B
:0E01B2008312031351088A00500882000800CF
:1001C000831603178C1CE6280000E0288312031313
:1001D000530803178D000313540803178C0083166C
:1001E0008C130C150B08F0008B1355308D00AA30C2
:1001F0008D008C14F01BFE288B13FF288B170C111D
:020200000800F4
:10020200AA207008D3000F300805F00003190B294B
:0A021200A22004295308F0000800A0
:10021C00013083120313DB001A200130D5000130AA
:10022C00D6002130D70062201A30FC00F830FD00D7
:10023C00FD0B1E29FC0B1E290000AC01A001AB011B
:0A024C00A901AA01AD01CA010800D2
:10025600831203137008F100F001FD017108031900
:1002660000347406F200F21BFD09F41F4029F4095C
:10027600F40AF109F10AF41B56290730FC0071084B
:10028600F40C03184D29FC0B4329F1010034F40C3E
:100296000318F107FD0DF10CF00CFC0B4A29FD0DBE
:1002A600F10CF00C0034F1017D0DF10CF00C003472
:0202B60008003E
:1002B800831603138612061206108610061186117D
:1002C80083128612061286110611861006100D205A
:1002D8000D200D208614061486160A2086120D207D
:1002E80086160A2086120D2086160A2086120D20F0
:1002F800061086160A2086120D2086160A208612F7
:100308008610861586160A2086120D208611061478
:1003180086160A208612061086160A2086120D20D6
:1003280086160A208612061486160A2086120D20C2
:10033800061086160A2086128615061586140614D7
:0C03480086160A2086120D2052140800B0
:10035400D9208A110A128000840AD00A0319D10A0A
:08036400F003031DAA290800A3
:0A036C00FF30831603138800080019
:10037600B624B62180300317880089015C2101303C
:10038600DB001A200C30DB001A200919742C01300E
:10039600DB001A200130D5000130D6004430D700EA
:1003A60062202C082B3A0319E6292C082D3A03194A
:1003B600E6292C082E3A0319E6292C082F3A0319A8
:1003C600E6292C08A000AC0101217008AC00091D2B
:1003D600ED29F0292C080319E729091DF329732CA7
:1003E600242A3130AC00642A3430AC00642A373019
:1003F600AC00642A4A30AC00642A3230AC00642A6D
:100406003530AC00642A3830AC00642A3030AC0099
:10041600642A3330AC00642A3630AC00642A3930A2
:10042600AC00642A4C30AC00642A2B30AC00642A41
:100436002D30AC00642A2E30AC00642A2F30AC007C
:10044600642A2C08013A0319F4292C08023A0319E4
:10045600F7292C08033A0319FA292C08043A031938
:10046600FD292C08053A0319002A2C08063A031917
:10047600032A2C08073A0319062A2C08083A0319F6
:10048600092A2C08093A03190C2A2C080A3A0319D6
:100496000F2A2C080B3A0319122A2C080C3A0319B6
:1004A600152A2C080D3A0319182A2C080E3A031996
:1004B6001B2A2C080F3A03191E2A2C08103A031976
:1004C600212A2008003A031D7A2A2C082B3A031900
:1004D600792A2C082D3A0319792A2C082E3A031961
:1004E600792A2C082F3A0319792A7A2A0E212C0800
:1004F6002B3A031D322B0130AD00CC2A4130A0002F
:100506002D2B4430A0002D2B4730A0002D2B56302C
:10051600A0002D2B4230A0002D2B4530A0002D2B06
:100526004830A0002D2B4B30A0002D2B4330A000CF
:100536002D2B4630A0002D2B4930A0002D2B5930F5
:10054600A0002D2B4D30A0002D2B5030A0002D2BC0
:100556005330A0002D2B5730A0002D2B4E30A0007D
:100566002D2B5130A0002D2B5430A0002D2B5830B0
:10057600A0002D2B4F30A0002D2B5230A0002D2B8C
:100586005530A0002D2B5A30A0002D2B0130CA006B
:100596002D2B2008313A0319812A2008343A0319F1
:1005A600842A2008373A0319872A20084A3A031969
:1005B6008A2A2008323A03198D2A2008353A031967
:1005C600902A2008383A0319932A2008303A03194A
:1005D600962A2008333A0319992A2008363A03192D
:1005E6009C2A2008393A03199F2A20084C3A0319F5
:1005F600A22A2008413A0319A52A2008443A0319D9
:10060600A82A2008473A0319AB2A2008563A0319A4
:10061600AE2A2008423A0319B12A2008453A03199E
:10062600B42A2008483A0319B72A20084B3A031976
:10063600BA2A2008433A0319BD2A2008463A031964
:10064600C02A2008493A0319C32A2008593A03192F
:10065600C62AC92A4A080319312B0E21722C2C08E6
:100666002D3A031D3F2B0130C300A0012908CF00FE
:10067600A901AA01AB01722C2C082E3A031DF12BFD
:100686000130DB001A2043080319852B2B08F000E4
:100696000A30F4002B2130302002F200F301031C53
:1006A600F3037208F00773080318013EF107700898
:1006B6002907F3002A080318013E7107F40073089E
:1006C600A9007408AA000430F2007308F000740848
:1006D600F10072080319742BF00DF10D7010FF3E36
:1006E6006D2B0B30F0070318F10A7008CD00710866
:1006F600CE007008D3004F08D400E0208312031305
:10070600AB01F02B30302002031CEF2B2008393CC4
:10071600031CEF2B2B08F0000A30F4002B2130309D
:100726002002F200F301031CF3037208F0077308BA
:100736000318013EF10770082907F2002A0803187A
:10074600013E7107F3007208A9007308AA0004307D
:10075600F0007208D30070080319B52BD30D53109F
:10076600FF3EAF2B7208D400E02083120313AB01C7
:100776000430F0002908CD002A08CE0070080319BD
:10078600C92BCD0DCE0D4D10FF3EC22BCB01CC019A
:1007960080304C06F00080307002031DD42B0F30E1
:1007A6004B020318EE2BCD0A0319CE0A4D08D300CF
:1007B6004B08F0004C08F100F00DF10D70107008B8
:1007C600A03E84000008D400E02083120313CB0A65
:1007D6000319CC0ACB2BF02B0E21722C2C082F3AA6
:1007E600031D1E2C0430F0002908AF002A08B000B3
:1007F60070080319032CAF0DB00D2F10FF3EFC2B14
:10080600CB01CC0180304C06F00080307002031D15
:100816000E2C0F304B0203181D2C2F08D300D401C9
:10082600E02083120313AF0A0319B00ACB0A031997
:10083600CC0A052C722C2D080319302C2E08F0003A
:10084600F00D70107008A03E840020088000840A15
:100856008001A001AE0AAB01722C20084C3A0319A4
:10086600392C20084A3A0319392C522C2E08F0004C
:10087600F00D70107008A03E840020088000840AE5
:100886008001A001AE0A0130DB001A200130D5003C
:100896000130D6003B30D7006220AB01722C3030DD
:1008A6002002031C722C2008393C031C722C2B08D6
:1008B600F0000A30F4002B2130302002F200F30160
:1008C600031CF3037208F00773080318013EF107CF
:1008D6007008A90771080318013EAA07AB0ACA29BE
:1008E6007E2C0130DB001A200130D5000130D60005
:0A08F6003130D7006220C8297F2CA2
:10096C0020308400303083120313F0008530D00027
:08097C000430D100AA2108009B
:02090A000034B7
:10090C00473472346534733468346B346134003476
:04091C00003400346F
:020920000034A1
:0209220000349F
:0209240000349D
:0209260000349B
:040928000034003463
:10092C0052346F34703461346B3469346E346A34DD
:04093C0061340034EE
:100940004A34203469346C34693420344C340034F3
:02095000003471
:0C09520056346E3465347334693400345C
:02095E00003463
:04096000003400342B
:040964000034003427
:02096800003459
:04400E00F22F000786
:00000001FF
