:02000000822A52
:0E000600213083120313FD00FD0B07280800B4
:06001400000000000800DE
:10001A000F3083120313FC004730FD00FD0B132839
:0A002A00FC0B132800000000080082
:1000340083160313D11B21288312861123288312CC
:1000440086158316511B2928831206112B28831227
:1000540006158316D11A3128831286103328831289
:1000640086148316511A3928831206103B288312EA
:100074000614831642184128831206164328831255
:10008400061286160A2086128316D1194C2883126A
:1000940086114E288312861583165119542883120B
:1000A40006115628831206158316D1185C2883126C
:1000B40086105E28831286148316511864288312CE
:1000C4000610662883120614831642186C288312BD
:1000D40006166E288312061286160A2086128316C6
:0C00E400421C76280D207728032008001D
:1000F0008316031342105008D1001A2083164214AD
:020100000800F5
:1001020083120313F801F9011030FC00710DF80D90
:10011200F90D7408F8027508031C750FF90203182B
:1001220099287408F80775080318750FF907031062
:0A013200F00DF10DFC0B872808000A
:0E013C008316031321088A00200882000800A1
:10014A00B728803083160313CB00CA28C030CB00EF
:10015A00CA289430CB00CA28D430CB00CA288030B1
:10016A00CB00CA28831603134B08013A0319A628A1
:10017A004B08023A0319AB284B08033A0319AE2875
:10018A004B08043A0319B128B4284C03F0004B0871
:10019A00F0077008CB007008D1001A2083164210AD
:1001AA00CE014E084D07840000080319E4284E08C2
:1001BA004D0784000008D0007820CE0AD6284214C1
:0201CA0008002B
:1001CC0083160313CB01CD01CE011030CF000430C8
:1001DC004E0203181429F0308312880083164F093D
:1001EC0088000A200A200F3083120805F0007008DE
:1001FC008316CC00700803190E294D08CB004C084F
:10020C0003190C29CC0CCC13CB0A05290430CE00D5
:10021C00CF0D4F100430CD07CE0AED284B08F0005F
:02022C000800C8
:10022E00063083120313FD00FD0B1B29000008008E
:10023E000E3083120313FD00FD0B2329000008006E
:10024E00831603178C1C2D2900002729031346083B
:10025E00831203178D0083160313470883120317A7
:10026E008C0083168C130C150B08F0008B13553075
:10027E008D00AA308D008C14F01B47298B13482952
:06028E008B170C110800A3
:10029400831203137008F100F001FD0171080319C2
:1002A40000347406F200F21BFD09F41F5F29F409FF
:1002B400F40AF109F10AF41B75290730FC007108EE
:1002C400F40C03186C29FC0B6229F1010034F40CC2
:1002D4000318F107FD0DF10CF00CFC0B6929FD0D61
:1002E400F10CF00C0034F1017D0DF10CF00C003434
:0202F400080000
:1002F600013083160313D1001A2001308316CB0078
:100306000130CC002730CD00A5201A30FC00F83093
:10031600FD00FD0B8C29FC0B8C2900008312A30128
:0E032600AF01A201A001A101A401A6010800DF
:10033400E6207008C6000F3083120805F000031988
:0E034400A52917219D2983164608F000080000
:1003520083160313C901053049020318B729490856
:100362004807840020308000C90AAC2949084807A0
:1003720084008001C90349084807CA000A30F40012
:10038200F5014608F0004708F10081207808F000E6
:100392007908F1003030F00783164A0884007008AB
:1003A20080000A30F400F5014608F0004708F10029
:1003B200812070088316C6007108C70000307106DC
:1003C200031DE52900307006031DE829EA29C90347
:0403D200BC2908003A
:1003D6009E208A110A128000840AA00A0319A10A23
:0803E600F003031DEB290800E0
:1003EE00FF3083160313C300FF30C400FF30C50077
:1003FE00FF30C33083129F05C0309F0083169F17B6
:06040E0083121F14080018
:10041400831603138612061206108610061186111F
:1004240083128612061286110611861006100D20FC
:100434000D200D208614061486160A2086120D201F
:1004440086160A2086120D2086160A2086120D2092
:10045400061086160A2086120D2086160A20861299
:100464008610861586160A2086120D20861106141B
:1004740086160A208612061086160A2086120D2079
:1004840086160A208612061486160A2086120D2065
:10049400061086160A20861286150615861406147A
:0E04A40086160A2086120D20831642140800C8
:1004B200C330831203139F05C0309F008316460882
:1004C200F000F00D7010F00D7010700883129F0490
:1004D20083169F1783121F141F219F149F1C732AB8
:1004E20000006F2A1F101E08F100F00183161E087B
:0804F200F0040030F1040800E1
:0A04FA00FF3083160313880008008A
:10050400EC257D228030031788008901FF30031316
:1005140085000A220130D1001A200C308316D10044
:100524001A20F72107308316C60059227008831257
:10053400A50070088316C6000030C61BFF30C70034
:100544005C30C800A9210130CB000130CC005C3004
:10055400CD00A52083122508003A031D9D2D0130EE
:100564008316D1001A2001308316CB000130CC0051
:100574005030CD00A520831223082B3A0319D02A2A
:1005840023082D3A0319D02A23082E3A0319D02A16
:1005940023082F3A0319D02A2308AF00A3019A2174
:1005A40070088312A30007308316C600592270080E
:1005B4008312A5007008003A0319F22A0130831649
:1005C400CB000130CC004930CD00A5201A30FC000E
:1005D400F830FD00FD0BEC2AFC0BEC2A0000F62A97
:1005E400831223080319D12A83122508003A031918
:1005F4000D2B01308316CB000130CC004230CD00EE
:10060400A5201A30FC00F830FD00FD0B072BFC0B75
:10061400072B00009C2D3F2B31308312A300802B2D
:100624003430A300802B3730A300802B4A30A30042
:10063400802B3230A300802B3530A300802B383040
:10064400A300802B3030A300802B3330A300802BF9
:100654003630A300802B3930A300802B4C30A3000C
:10066400802B2B30A300802B2D30A300802B2E3029
:10067400A300802B2F30A300802B83122308013A80
:1006840003190E2B2308023A0319122B2308033AE9
:100694000319152B2308043A0319182B2308053AC8
:1006A40003191B2B2308063A03191E2B2308073AA8
:1006B4000319212B2308083A0319242B2308093A88
:1006C4000319272B23080A3A03192A2B23080B3A68
:1006D40003192D2B23080C3A0319302B23080D3A48
:1006E4000319332B23080E3A0319362B23080F3A28
:1006F4000319392B2308103A03193C2B2F08003A0D
:10070400031D962B23082B3A0319952B23082D3A06
:100714000319952B23082E3A0319952B23082F3AF6
:100724000319952B962B7B2123082B3A031D4E2C62
:100734000130A400E82B4130AF00492C4430AF0015
:10074400492C4730AF00492C5630AF00492C423079
:10075400AF00492C4530AF00492C4830AF00492C3C
:100764004B30AF00492C4330AF00492C4630AF002A
:10077400492C4930AF00492C5930AF00492C4D3039
:10078400AF00492C5030AF00492C5330AF00492CF6
:100794005730AF00492C4E30AF00492C5130AF00D8
:1007A400492C5430AF00492C5830AF00492C4F30FD
:1007B400AF00492C5230AF00492C5530AF00492CC2
:1007C4005A30AF00492C0130A600492C2F08313A89
:1007D40003199D2B2F08343A0319A02B2F08373AFD
:1007E4000319A32B2F084A3A0319A62B2F08323AD0
:1007F4000319A92B2F08353A0319AC2B2F08383AC3
:100804000319AF2B2F08303A0319B22B2F08333AB0
:100814000319B52B2F08363A0319B82B2F08393A88
:100824000319BB2B2F084C3A0319BE2B2F08413A4E
:100834000319C12B2F08443A0319C42B2F08473A34
:100844000319C72B2F08563A0319CA2B2F08423A0B
:100854000319CD2B2F08453A0319D02B2F08483AFA
:100864000319D32B2F084B3A0319D62B2F08433ADD
:100874000319D92B2F08463A0319DC2B2F08493AC0
:100884000319DF2B2F08593A0319E22BE52B26080D
:1008940003194D2C7B219B2D23082D3A031D5B2C22
:1008A4000130D600AF012008DB00A001A101A201A4
:1008B4009B2D23082E3A031D162D01308316D100DB
:1008C4001A2056080319A62C2208F0000A30F40056
:1008D4004A2130302F02F200F301031CF3037208A3
:1008E400F00773080318013EF10770082007F300AE
:1008F40021080318013E7107F4007308A00074086E
:10090400A1000430F2007308F0007408F1007208CA
:100914000319912CF00DF10D7010FF3E8A2C0B3051
:10092400F0070318F10A7008D9007108DA0070089A
:100934008316C60083125B088316C700272183121F
:100944000313A201D601152D30302F02031C142DE0
:100954002F08393C031C142D2208F0000A30F4003F
:100964004A2130302F02F200F301031CF303720812
:10097400F00773080318013EF10770082007F2001E
:1009840021080318013E7107F3007208A0007308E0
:10099400A1000430F00072088316C6007008031921
:1009A400D72CC60D4610FF3ED12C7208C700272154
:1009B40083120313A2010430F0002008D900210897
:1009C400DA0070080319EB2CD90DDA0D5910FF3E2B
:1009D400E42CD701D80180305806F0008030700232
:1009E400031DF62C0F3057020318132DD90A0319CF
:1009F400DA0A59088316C60083125708F00058080B
:100A0400F100F00DF10D70107008A23E8400000892
:100A14008316C700272183120313D70A0319D80AA0
:100A2400ED2C152D7B219B2D23082F3A031D442DDE
:100A34000430F0002008B1002108B2007008031946
:100A4400282DB10DB20D3110FF3E212DD701D80153
:100A540080305806F00080307002031D332D0F30B3
:100A640057020318432D31088316C600C7012721F6
:100A740083120313B10A0319B20AD70A0319D80A55
:100A84002A2D9B2D24080319562D3008F000F00D53
:100A940070107008A23E84002F088000840A800130
:100AA400AF01B00AA2019B2D2F084C3A03195F2D08
:100AB4002F084A3A03195F2D7B2D3008F000F00D02
:100AC40070107008A23E84002F088000840A800100
:100AD400AF01B00A01308316D1001A200130831609
:100AE400CB000130CC003330CD00A5208312A2010D
:100AF4009B2D30302F02031C9B2D2F08393C031CE7
:100B04009B2D2208F0000A30F4004A2130302F02D5
:100B1400F200F301031CF3037208F00773080318CF
:100B2400013EF1077008A00771080318013EA107F0
:100B3400A20AB12AA92D01308316D1001A2001304E
:100B44008316CB000130CC003B30CD00A520AC2A6D
:020B5400AA2DC8
:100BD800203084003C3083120313F000B0308316B9
:0A0BE800A0000530A100EB21080079
:040B60000034003429
:020B640000345B
:020B6600003459
:020B6800003457
:020B6A00003455
:020B6C00003453
:100B6E00473472346534733468346B346134003412
:020B7E00003441
:020B800000343F
:040B82000034003407
:100B86004A34203469346C34693420344C340034AB
:0E0B96004E346134643476346F34723400347B
:0E0BA40042347234653461346B3432340034C0
:0E0BB20042347234653461346B3431340034B3
:0C0BC00056346E346534733469340034EC
:020BCC000034F3
:040BCE0000340034BB
:040BD20000340034B7
:020BD6000034E9
:04400E00F22F000786
:00000001FF
