:02000000F32AE1
:06000600000000000800EC
:10000C000F3083120313FC004730FD00FD0B0C284E
:0A001C00FC0B0C2800000000080097
:0E002600213083120313FD00FD0B1728080084
:1000340083160313E41B21288312861123288312B9
:1000440086158316641B2928831206112B28831214
:1000540006158316E41A3128831286103328831276
:1000640086148316641A3928831206103B288312D7
:10007400061483165818412883120616432883123F
:1000840006128616032086128316E4194C2883125E
:1000940086114E28831286158316641954288312F8
:1000A40006115628831206158316E4185C28831259
:1000B40086105E28831286148316641864288312BB
:1000C4000610662883120614831658186C288312A7
:1000D40006166E28831206128616032086128316CD
:0C00E400581C76280620772813200800FE
:1000F0008316031358106308E4001A20831658145B
:020100000800F5
:10010200063083120313FD00FD0B85280000080052
:100112000E3083120313FD00FD0B8D280000080032
:1001220083120313F801F9011030FC00710DF80D70
:10013200F90D7408F8027508031C750FF90203180B
:10014200A9287408F80775080318750FF907031032
:0A015200F00DF10DFC0B97280800DA
:10015C0083160313DE01E001E1011030E2000430EC
:10016C0061020318DC28F0308312880083166209C0
:10017C008800032003200F3083120805F00070085C
:10018C008316DF0070080319D6286008DE005F08AC
:10019C000319D428DF0CDF13DE0ACD280430E1006C
:1001AC00E20D62100430E007E10AB5285E08F000A9
:0201BC00080039
:0E01BE00831203136F088A006E088200080087
:1001CC00F828803083160313DE000B29C030DE00C4
:1001DC000B299430DE000B29D430DE000B29803043
:1001EC00DE000B29831603135E08013A0319E72876
:1001FC005E08023A0319EC285E08033A0319EF284B
:10020C005E08043A0319F228F5285F03F0005E0833
:10021C00F0077008DE007008E4001A2083165810EE
:10022C00E1016108600784000008031925296108B1
:10023C00600784000008E3007820E10A17295814AD
:02024C000800A8
:10024E0083120313AE01AF01AD01A301A401A201FC
:04025E00A1010800F2
:10026200831603135908F2007208F100F20A5A08C1
:10027200F000DA0A700884000008F00071088400B7
:100282007008800071088400000803194929352983
:060292005908F00008000D
:1002980083160313DC0105305C0203185A295C0835
:1002A8005B07840020308000DC0A4F295C085B076C
:1002B80084008001DC035C085B07DD000A30F40081
:1002C800F5015908F0005A08F10091207808F0006B
:1002D8007908F1003030F00783165D088400700853
:1002E80080000A30F400F5015908F0005A08F100BE
:1002F800912070088316D9007108DA000030710661
:10030800031D882900307006031D8B298D29DC0305
:040318005F29080051
:10031C00831203131A08F100981C96291812181648
:06032C007108F00008005A
:1003320083120313FB01FA01F9018030F800F10C7A
:10034200F00C031CAD297408F90775080318750F22
:10035200FA070318FB0A0310F01FB5297408FA07FD
:1003620075080318750FFB07FB0CFA0CF90CF80C57
:10037200031CA0297B08F3007A08F2007908F10037
:060382007808F0000800FD
:1003880083160313861206120610861006118611AC
:100398008312861206128611061186100610062090
:1003A80006200620861406148616032086120620C8
:1003B800861603208612062086160320861206203B
:1003C800061086160320861206208616032086123B
:1003D80086108615861603208612062086110614B6
:1003E800861603208612061086160320861206201B
:1003F8008616032086120614861603208612062007
:10040800061086160320861286150615861406140D
:0E04180086160320861206208316581408004C
:10042600831603178C1C192A0000132A0313590874
:10043600831203178D00831603135A0883120317BA
:100446008C0083168C130C150B08F0008B1355309B
:100456008D00AA308D008C14F01B332A8B13342A9E
:060466008B170C110800C9
:10046C00013083160313E4001A2001308316DE00DA
:10047C000130DF002530E000E6201A30FC00F830B7
:10048C00FD00FD0B472AFC0B472A00008312AE012E
:0E049C00AF01AD01A301A401A201A10108005E
:1004AA00C330831203139F05C0309F008316590877
:1004BA00F000F00D7010F00D7010700883129F0498
:1004CA0083169F1783121F1489209F149F1C6F2A5B
:1004DA0000006B2A1F101E08F100F00183161E0887
:0804EA00F0040030F1040800E9
:1004F2008316031398187F2A0000792A5908831259
:040502009900080054
:10050600831603135908831203178D0083168C1361
:0A0516000C1483120C08F00008001A
:0E0520000030831203138C1A0130F000080023
:10052E00831203137008F100F0010830FC0071080B
:10053E00F40C0318A62AFC0B9F2AF10100340310B9
:10054E00AB2AF40C0318F107F10CF00CFC0BA82AE3
:02055E00080093
:10056000DF208A110A128000840AEE0A0319EF0ABA
:08057000F003031DB02A08008E
:10057800AE207008D9000F3083120805F000031967
:0E058800C72A8120BF2A83165908F0000800F8
:0A059600FF308316031388000800ED
:1005A000FF3083160313B400FF30B500FF30B600F0
:1005B000FF30C33083129F05C0309F0083169F1702
:0605C00083121F14080065
:1005C60083160313981690308312980083168717A4
:1005D600071383128C1EF22A1A08F000EC2A080070
:1005E6004A27CB228030031788008901FF30031386
:1005F6008500C4210130E4001A200C308316E40083
:100606001A20D02207308316D9005522700883128B
:10061600A00070088316D9000030D91BFF30DA001D
:10062600A030DB004C210130DE000130DF00A030BD
:10063600E000E620831203178713881333308316EE
:10064600031399001815E3228230FC00DD30FD000B
:10065600FD0B2B2BFC0B2B2B00000000831220081C
:10066600003A031D3F2E01308316E4001A200130A4
:100676008316DE000130DF006030E000E6208312E2
:100686002E082B3A0319552B2E082D3A0319552BF4
:100696002E082E3A0319552B2E082F3A0319552BDF
:1006A6002E08AF00AE01BC2270088312AE000730E0
:1006B6008316D900552270088312A0007008003AEC
:1006C6000319662B692B2E080319562B2008003AAE
:1006D60003196E2B3E2E9F2B3130AE00DF2B3430AC
:1006E600AE00DF2B3730AE00DF2B4A30AE00DF2BFB
:1006F6003230AE00DF2B3530AE00DF2B3830AE00A7
:10070600DF2B3030AE00DF2B3330AE00DF2B363040
:10071600AE00DF2B3930AE00DF2B4C30AE00DF2BC6
:100726002B30AE00DF2B2D30AE00DF2B2E30AE008F
:10073600DF2B2F30AE00DF2B2E08013A03196F2B6B
:100746002E08023A0319722B2E08033A0319752B49
:100756002E08043A0319782B2E08053A03197B2B29
:100766002E08063A03197E2B2E08073A0319812B09
:100776002E08083A0319842B2E08093A0319872BE9
:100786002E080A3A03198A2B2E080B3A03198D2BC9
:100796002E080C3A0319902B2E080D3A0319932BA9
:1007A6002E080E3A0319962B2E080F3A0319992B89
:1007B6002E08103A03199C2B2F08003A031DF52B1F
:1007C6002E082B3A0319F42B2E082D3A0319F42B75
:1007D6002E082E3A0319F42B2E082F3A0319F42B60
:1007E600F52B36222E082B3A031DAD2C0130A20024
:1007F600472C4130AF00A82C4430AF00A82C47301E
:10080600AF00A82C5630AF00A82C4230AF00A82C61
:100816004530AF00A82C4830AF00A82C4B30AF00B5
:10082600A82C4330AF00A82C4630AF00A82C493086
:10083600AF00A82C5930AF00A82C4D30AF00A82C23
:100846005030AF00A82C5330AF00A82C5730AF0063
:10085600A82C4E30AF00A82C5130AF00A82C543035
:10086600AF00A82C5830AF00A82C4F30AF00A82CF2
:100876005230AF00A82C5530AF00A82C5A30AF002C
:10088600A82C0130A100A82C2F08313A0319FC2B03
:100896002F08343A0319FF2B2F08373A0319022C75
:1008A6002F084A3A0319052C2F08323A0319082C47
:1008B6002F08353A03190B2C2F08383A03190E2C3A
:1008C6002F08303A0319112C2F08333A0319142C28
:1008D6002F08363A0319172C2F08393A03191A2C00
:1008E6002F084C3A03191D2C2F08413A0319202CC6
:1008F6002F08443A0319232C2F08473A0319262CAC
:100906002F08563A0319292C2F08423A03192C2C82
:100916002F08453A03192F2C2F08483A0319322C71
:100926002F084B3A0319352C2F08433A0319382C54
:100936002F08463A03193B2C2F08493A03193E2C37
:100946002F08593A0319412C442C21080319AC2CC1
:1009560036223D2E2E082D3A031DD32C0130DF0002
:100966002308F0002408F1000A30F4000030F500F6
:10097600992130302F02F200F301031CF3037208B1
:10098600F00773080318013EF1077008A300710809
:10099600A400AF017008E700A301A401AD013D2E3C
:1009A6002E082E3A031DA32D01308316E4001A20CB
:1009B6005F080319342D2308F0002408F1000A30DB
:1009C600F4000030F500992130302F02F200F301D7
:1009D600031CF30372087007A30071080318013E95
:1009E6007307A40001308316E4001A20303067072D
:1009F600F0007008AD0001308316DE000130DF0024
:100A06007008E000E6201A30FC00F830FD00FD0B0F
:100A16000A2DFC0B0A2D00000430F2008312230875
:100A2600F0002408F100720803191E2DF00DF10DD7
:100A36007010FF3E172D83120B30F0070318F10AD2
:100A46007008EA007108EB0070088316D90083125B
:100A560067088316DA00132283120313AD01DF0140
:100A6600A22D30302F02031C9E2D2F08393C031C6B
:100A76009E2D2308F0002408F1000A30F40000300F
:100A8600F500992130302F02F200F301031CF30325
:100A96007008F20771080318013EF3077208A300F5
:100AA6007308A4000430F00072088316D900700899
:100AB6000319612DD90D5910FF3E5B2D7208DA001E
:100AC600132283120313AD010430F0002308EA0059
:100AD6002408EB0070080319752DEA0DEB0D6A105A
:100AE600FF3E6E2DE801E90180306906F000803096
:100AF6007002031D802D0F30680203189D2DEA0A2F
:100B06000319EB0A6A088316D90083126808F000F5
:100B16006908F100F00DF10D70107008B83E840000
:100B260000088316DA00132283120313E80A031956
:100B3600E90A772D9F2D3622A301A40127213D2EF8
:100B46002E082F3A031DD52D01308316E4001A20F6
:100B56000430F0002308DD002408DE0070080319C5
:100B6600B92DDD0DDE0D5D10FF3EB22DE801E90168
:100B760080306906F00080307002031DC42D0F30EE
:100B860068020318D42D5D088316D900DA011322F2
:100B960083120313DD0A0319DE0AE80A0319E90AB8
:100BA600BB2D3D2E22080319E82D4708F000F00D55
:100BB60070107008B83E84002F088000840A8001F7
:100BC600AF01C70AAD01A2013D2E2F084C3A031909
:100BD600F12D2F084A3A0319F12D0D2E4708F00082
:100BE600F00D70107008B83E84002F088000840A4B
:100BF6008001AF01C70A01308316E4001A200130D4
:100C06008316DE000130DF003F30E000E62083126D
:100C1600AD013D2E30302F02031C3D2E2F08393CEE
:100C2600031C3D2E2308F0002408F1000A30F400CE
:100C36000030F500992130302F02F200F301031C39
:100C4600F30372087007A30071080318013E7307C7
:100C5600A40001308316DE000130DF003030E000F2
:100C6600E6201A30FC00F830FD00FD0B382EFC0B98
:100C7600382E0000362BF72E8312E801E901AD016C
:100C860001308316E4001A2001308316DE0001309D
:100C9600DF004830E000E620A030D9005430DA000A
:100CA6003121902270080319F62E53080319782E65
:100CB6008E2170088316B70083126808A03E840050
:100CC60070080006031D6B2EE80A0319E90A6D2E4B
:100CD600E801E90100306906031D732E0730680636
:100CE600031D772E0130D300B82E8E21700883168F
:100CF600B70083126608003A031D9A2E2D08F000ED
:100D06000A30F4009722303083163702F10071085A
:100D1600F00770088312EC07AD0A831637083A3AD3
:100D2600031D992E01308312E600AD01B82E831201
:100D36002D08F0000A30F40097223030831637026F
:100D4600F1007108F00770088312ED07AD0A2D084F
:100D5600023A031DB82E6C08F0003C30F4009722CE
:100D66007008EC007008ED07F72E8312E801E90120
:100D7600E801E90180306906F00080307002031D49
:100D8600C62E103068020318E72E0430F0006808FB
:100D96008316D90070080319D42ED90D5910FF3EB9
:100DA600CE2E0B30D907832270080313E7000130DB
:100DB6008316DE000130DF007008E000E6208312B3
:100DC600E80A0319E90ABD2E01308316E4001A2049
:100DD60001308316DE000130DF00A030E000E6209F
:0C0DE6003708D9007922542E312BF82E4A
:100E9400203084004C3083120313F000FE30EE0047
:080EA4000630EF00B022080047
:020DFC000034C1
:020DFE000034BF
:020E00000034BC
:040E02000034003484
:100E0600473472346534733468346B346134003477
:020E16000034A6
:020E18000034A4
:020E1A000034A2
:100E1C0056346E346534733465346E346134203436
:0E0E2C00423472346F346A346B3461340034F3
:100E3A004A34203469346C34693420344C340034F4
:020E4A00003472
:100E4C004B346F347234693473346E3469346334B4
:060E5C006B346934003420
:020E620000345A
:100E64004734453454342034543449344D344534AF
:020E7400003448
:040E76000034003410
:020E7A00003442
:0C0E7C0056346E3465347334693400342D
:020E8800003434
:020E8A00003432
:040E8C0000340034FA
:040E900000340034F6
:04400E00F22F000786
:00000001FF
