:02000000DA2AFA
:06000600000000000800EC
:10000C000F3083120313FC004730FD00FD0B0C284E
:0A001C00FC0B0C2800000000080097
:0E002600213083120313FD00FD0B1728080084
:1000340083160313D51B21288312861123288312C8
:1000440086158316551B2928831206112B28831223
:1000540006158316D51A3128831286103328831285
:1000640086148316551A3928831206103B288312E6
:10007400061465183F280616402806128616032023
:1000840086128316D5194928831286114B288312A8
:100094008615831655195128831206115328831285
:1000A40006158316D5185928831286105B288312E7
:1000B4008614831655186128831206106328831248
:1000C4000614651867280616682806128616032083
:0E00D4008612651C6F28062070281320080075
:1000E20083120313651083165408D5001A20651471
:0200F200080004
:1000F40083120313EB01ED01EE011030EF00043025
:100104006E020318A628F03088006F098316880051
:10011400032003200F3083120805F0007008EC0060
:1001240070080319A0286D08EB006C0803199E28B9
:10013400EC0CEC13EB0A97280430EE00EF0D6F1073
:0E0144000430ED07EE0A81286B08F000080079
:10015200063083120313FD00FD0BAD2800000800DA
:100162000E3083120313FD00FD0BB52800000800BA
:10017200CB28803083120313EB00DE28C030EB0063
:10018200DE289430EB00DE28D430EB00DE2880300D
:10019200EB00DE28831203136B08013A0319BA2815
:1001A2006B08023A0319BF286B08033A0319C228E5
:1001B2006B08043A0319C528C8286C03F0006B08C1
:1001C200F0077008EB0070088316D5001A2065103E
:1001D200EE016E086D07840000080319F9286E0805
:1001E2006D07840000088316D4007120EE0AEA2805
:0401F2006514080088
:0E01F6008312031362088A0061088200080069
:1002040083120313F801F9011030FC00710DF80D8D
:10021400F90D7408F8027508031C750FF902031828
:100224001A297408F80775080318750FF9070310DD
:0A023400F00DF10DFC0B0829080085
:10023E007A207008E6000F300805F000031929290E
:0A024E00A92022296608F00008002C
:10025800831603178C1C322900002C2983120313E0
:10026800660803178D000313670803178C008316AD
:100278008C130C150B08F0008B1355308D00AA3029
:100288008D008C14F01B4A298B134B298B170C11EA
:0202980008005C
:10029A00831203131A08F100981C5529181218160C
:0602AA007108F0000800DD
:1002B0008316031386120612061086100611861185
:1002C0008312861206128611061186100610062069
:1002D00006200620861406148616032086120620A1
:1002E0008616032086120620861603208612062014
:1002F0000610861603208612062086160320861214
:10030000861086158616032086120620861106148E
:1003100086160320861206108616032086120620F3
:1003200086160320861206148616032086120620DF
:1003300006108616032086128615061586140614E6
:0C034000861603208612062065140800B3
:0E034C000030831203138C1A0130F0000800F9
:10035A00831203137008F100F001FD0171080319FB
:10036A0000347406F200F21BFD09F41FC229F409D5
:10037A00F40AF109F10AF41BD8290730FC007108C4
:10038A00F40C0318CF29FC0BC529F1010034F40C35
:10039A000318F107FD0DF10CF00CFC0BCC29FD0D37
:1003AA00F10CF00C0034F1017D0DF10CF00C00346D
:0203BA00080039
:1003BC00831203136608F2007208F100F20A670850
:1003CC00F000E70A700884000008F000710884004F
:1003DC00700880007108840000080319F629E229CE
:0603EC006608F0000800A5
:1003F200FF3083120313DE00FF30DF00FF30E00026
:10040200FF30C3309F05C0309F0083169F178312B1
:040412001F140800AB
:10041600FB208A110A128000840AE10A0319E20A03
:08042600F003031D0B2A08007E
:10042E0083120313660803178D0083168C130C14A6
:08043E0083120C08F000080015
:10044600831603139818292A0000232A83126608A4
:040456009900080001
:10045A00831203137008F100F0010830FC007108E0
:10046A00F40C03183C2AFC0B352AF1010034031062
:10047A00412AF40C0318F107F10CF00CFC0B3E2A8C
:02048A00080068
:10048C00013083160313D5001A200130EB00013024
:10049C00EC002530ED00B9201A30FC00F830FD00DE
:1004AC00FD0B562AFC0B562A0000AE01AF01AD0124
:0A04BC00A201A301A101A0010800A4
:1004C60083160313981690308312980083168717A5
:1004D600071383128C1E722A1A08F0006C2A080071
:0A04E600FF3083160313880008009E
:1004F00083120313E901053069020318862A69088B
:100500006807840020308000E90A7B2A69086807B0
:1005100084008001E90369086807EA000A30F400F2
:10052000F5016608F0006708F10002217808F00084
:100530007908F1003030F0076A0884007008800004
:100540000A30F400F5016608F0006708F1000221A6
:100550007008E6007108E70000307106031DB22A3A
:1005600000307006031DB52AB72AE9038B2A08005C
:10057000C330831203139F05C0309F006608F0004C
:10058000F00D7010F00D701070089F0483169F1707
:1005900083121F14B1209F149F1CD02A0000CC2A64
:1005A0001F101E08F100F00183161E08F004003031
:0405B000F10408004A
:1005B400D42673228030031788008901FF30031387
:1005C4008500582101308316D5001A200C3083167B
:1005D400D5001A20F9210730E600B82270088312EA
:1005E400A4007008E6000030E61BFF30E700A030EE
:1005F400E80078220130EB000130EC00A030ED007F
:10060400B920031787138813333083160313990013
:10061400181563228230FC00DD30FD00FD0B102B29
:10062400FC0B102B000000002408003A031DE92DE8
:1006340001308316D5001A200130EB000130EC00A4
:100644005130ED00B9202E082B3A0319372B2E0810
:100654002D3A0319372B2E082E3A0319372B2E085F
:100664002F3A0319372B2E08AF00AE011F21700853
:10067400AE000730E600B82270088312A4007008A8
:10068400003A0319462B492B2E080319382B24084A
:10069400003A03194E2BE82D7F2B3130AE00BF2BCF
:1006A4003430AE00BF2B3730AE00BF2B4A30AE0023
:1006B400BF2B3230AE00BF2B3530AE00BF2B3830ED
:1006C400AE00BF2B3030AE00BF2B3330AE00BF2B9B
:1006D4003630AE00BF2B3930AE00BF2B4C30AE00ED
:1006E400BF2B2B30AE00BF2B2D30AE00BF2B2E30D6
:1006F400AE00BF2B2F30AE00BF2B2E08013A0319DA
:100704004F2B2E08023A0319522B2E08033A0319D1
:10071400552B2E08043A0319582B2E08053A0319B1
:100724005B2B2E08063A03195E2B2E08073A031991
:10073400612B2E08083A0319642B2E08093A031971
:10074400672B2E080A3A03196A2B2E080B3A031951
:100754006D2B2E080C3A0319702B2E080D3A031931
:10076400732B2E080E3A0319762B2E080F3A031911
:10077400792B2E08103A03197C2B2F08003A031DFD
:10078400D52B2E082B3A0319D42B2E082D3A0319F6
:10079400D42B2E082E3A0319D42B2E082F3A0319E2
:1007A400D42BD52B46222E082B3A031D8D2C013039
:1007B400A100272C4130AF00882C4430AF00882C96
:1007C4004730AF00882C5630AF00882C4230AF0041
:1007D400882C4530AF00882C4830AF00882C4B3033
:1007E400AF00882C4330AF00882C4630AF00882CF3
:1007F4004930AF00882C5930AF00882C4D30AF0001
:10080400882C5030AF00882C5330AF00882C5730E0
:10081400AF00882C4E30AF00882C5130AF00882CAC
:100824005430AF00882C5830AF00882C4F30AF00C4
:10083400882C5230AF00882C5530AF00882C5A30A9
:10084400AF00882C0130A000882C2F08313A0319FE
:10085400DC2B2F08343A0319DF2B2F08373A0319FE
:10086400E22B2F084A3A0319E52B2F08323A0319D1
:10087400E82B2F08353A0319EB2B2F08383A0319C4
:10088400EE2B2F08303A0319F12B2F08333A0319B2
:10089400F42B2F08363A0319F72B2F08393A03198A
:1008A400FA2B2F084C3A0319FD2B2F08413A031950
:1008B400002C2F08443A0319032C2F08473A031934
:1008C400062C2F08563A0319092C2F08423A03190B
:1008D4000C2C2F08453A03190F2C2F08483A0319FA
:1008E400122C2F084B3A0319152C2F08433A0319DD
:1008F400182C2F08463A03191B2C2F08493A0319C0
:100904001E2C2F08593A0319212C242C20080319D2
:100914008C2C4622E72D2E082D3A031D9A2C0130EB
:10092400D000AF012208D800A201A301AD01E72D38
:100934002E082E3A031D612D01308316D5001A208E
:1009440050080319F52C2D08F0000A30F400AD21ED
:1009540030302F02F200F301031CF3037208F00796
:1009640073080318013EF1077008A2077108031801
:10097400013EA30701308316D5001A2030305807F2
:10098400F0007008AD000130EB000130EC0070089D
:10099400ED00B9201A30FC00F830FD00FD0BD02C1E
:1009A400FC0BD02C00000430F2002208F0002308D5
:1009B400F10072080319E32CF00DF10D7010FF3EE5
:1009C400DC2C0B30F0070318F10A7008DB00710807
:1009D400DC007008E6005808E7002C21831203139A
:1009E400AD01D001602D30302F02031C5F2D2F0884
:1009F400393C031C5F2D2D08F0000A30F400AD21B2
:100A040030302F02F200F301031CF3037208F007E5
:100A140073080318013EF10770082207F200230847
:100A24000318013E7107F3007208A2007308A300C3
:100A34000430F0007208E60070080319252DE60D55
:100A44006610FF3E1F2D7208E7002C21831203134A
:100A5400AD010430F0002208DB002308DC0070083C
:100A64000319392DDB0DDC0D5B10FF3E322DD9014E
:100A7400DA0180305A06F00080307002031D442DE4
:100A84000F30590203185E2DDB0A0319DC0A5B08D8
:100A9400E6005908F0005A08F100F00DF10D70104D
:100AA4007008B43E84000008E7002C21831203136D
:100AB400D90A0319DA0A3B2D602D4622E72D2E08A8
:100AC4002F3A031D922D01308316D5001A200430CD
:100AD400F0002208B9002308BA0070080319772D22
:100AE400B90DBA0D3910FF3E702DD901DA018030ED
:100AF4005A06F00080307002031D822D0F30590217
:100B04000318912D3908E600E7012C218312031301
:100B1400B90A0319BA0AD90A0319DA0A792DE72D91
:100B240021080319A42D3808F000F00D7010700886
:100B3400B43E84002F088000840A8001AF01B80A03
:100B4400AD01E72D2F084C3A0319AD2D2F084A3A71
:100B54000319AD2DC72D3808F000F00D7010700882
:100B6400B43E84002F088000840A8001AF01B80AD3
:100B740001308316D5001A200130EB000130EC005F
:100B84003030ED00B920AD01E72D30302F02031CC9
:100B9400E72D2F08393C031CE72D2D08F0000A30FF
:100BA400F400AD2130302F02F200F301031CF303F3
:100BB4007208F00773080318013EF1077008A207D2
:100BC40071080318013EA307AD0A1A2B8F2ED90111
:100BD400DA01AD0101308316D5001A200130EB0093
:100BE4000130EC003B30ED00B920A030E600473086
:100BF400E700DE21A621700803198E2E460803198A
:100C04001E2E4D217008E4005908A03E840070088F
:100C14000006031D112ED90A0319DA0A132ED9016D
:100C2400DA0100305A06031D192E07305906031D38
:100C34001D2E0130C600552E4D217008E4005708C2
:100C4400003A031D3A2E2D08F0000A30F4002D223C
:100C540030306402F1007108F0077008E307AD0A50
:100C640064083A3A031D392E0130D700AD01552EE0
:100C74002D08F0000A30F4002D2230306402F10017
:100C84007108F0077008DD07AD0A2D08023A031D4C
:100C9400552E6308F0003C30F4002D227008E30068
:100CA4007008DD078F2ED901DA01D901DA0180300D
:100CB4005A06F00080307002031D622E1030590273
:100CC4000318802E0430F0005908E6007008031958
:100CD4006F2EE60D6610FF3E692E0B30E6071722D5
:100CE40070080313D8000130EB000130EC007008E9
:100CF400ED00B920D90A0319DA0A592E01308316F6
:100D0400D5001A200130EB000130EC00A030ED00DA
:0E0D1400B9206408E6002322FC2D162B902E39
:100DA800203084003D3083120313F0009630E100B8
:080DB8000630E2000B220800E6
:020D2C00003491
:020D2E0000348F
:040D30000034003457
:020D3400003489
:100D3600473472346534733468346B346134003448
:020D4600003477
:020D4800003475
:020D4A00003473
:100D4C004A34203469346C34693420344C340034E3
:020D5C00003461
:040D5E000034003429
:100D62004B346F347234693473346E34693463349F
:060D72006B34693400340B
:020D7800003445
:100D7A004734453454342034543449344D3445349A
:020D8A00003433
:020D8C00003431
:0C0D8E0056346E3465347334693400341C
:020D9A00003423
:020D9C00003421
:040D9E0000340034E9
:040DA20000340034E5
:04400E00F22F000786
:00000001FF
