:020000008E2A46
:06000600000000000800EC
:10000C000F3083120313FC004730FD00FD0B0C284E
:0A001C00FC0B0C2800000000080097
:0E002600213083120313FD00FD0B1728080084
:1000340083160313CB1B21288312861123288312D2
:10004400861583164B1B2928831206112B2883122D
:1000540006158316CB1A312883128610332883128F
:10006400861483164B1A3928831206103B288312F0
:10007400061458183F280616402806128616032030
:1000840086128316CB194928831286114B288312B2
:10009400861583164B19512883120611532883128F
:1000A40006158316CB185928831286105B288312F1
:1000B400861483164B186128831206106328831252
:1000C4000614581867280616682806128616032090
:0E00D4008612581C6F28062070281320080082
:1000E20083120313581083164A08CB001A2058149F
:0200F200080004
:1000F4000E3083120313FD00FD0B7E280000080060
:0E0104008312031357088A0056088200080071
:100112009B28803083160313C500AE28C030C5006B
:10012200AE289430C500AE28D430C500AE28803049
:10013200C500AE28831603134508013A03198A281D
:100142004508023A03198F284508033A03199228F1
:100152004508043A0319952898284603F0004508F3
:10016200F0077008C5007008CB001A2058108316DB
:10017200C80148084707840000080319C92848082D
:10018200470784000008CA0071208316C80ABA28EB
:060192008312581408005E
:10019800063083120313FD00FD0BD0280000080071
:1001A80083160313C501C701C8011030C900043004
:1001B800480203180229F03083128800831649097F
:1001C8008800032003200F3083120805F000700810
:1001D8008316C60070080319FC284708C50046089E
:1001E8000319FA28C60CC613C50AF3280430C80038
:1001F800C90D49100430C707C80ADB284508F000B4
:020208000800EC
:10020A0083120313F801F9011030FC00710DF80D87
:10021A00F90D7408F8027508031C750FF902031822
:10022A001D297408F80775080318750FF9070310D4
:0A023A00F00DF10DFC0B0B2908007C
:1002440083120313A101A201A001A501A601A40127
:04025400A3010800FA
:10025800831603178C1C322900002C29031340082D
:10026800831203178D0083160313410883120317A3
:100278008C0083168C130C150B08F0008B1355306B
:100288008D00AA308D008C14F01B4C298B134D293E
:060298008B170C11080099
:10029E008316031386120612061086100611861197
:1002AE00831286120612861106118610061006207B
:1002BE0006200620861406148616032086120620B3
:1002CE008616032086120620861603208612062026
:1002DE000610861603208612062086160320861226
:1002EE0086108615861603208612062086110614A1
:1002FE008616032086120610861603208612062006
:10030E0086160320861206148616032086120620F1
:10031E0006108616032086128615061586140614F8
:0C032E00861603208612062058140800D2
:10033A008316031398169030831298008316871732
:10034A00071383128C1EAC291A08F000A62908008C
:10035A0083160313C301053043020318BB2943085C
:10036A004207840020308000C30AB02943084207AC
:10037A0084008001C30343084207C4000A30F40022
:10038A00F5014008F0004108F10005217808F00065
:10039A007908F1003030F0078316440884007008A9
:1003AA0080000A30F400F5014008F0004108F1002D
:1003BA00052170088316C0007108C100003071065B
:1003CA00031DE92900307006031DEC29EE29C30339
:0403DA00C02908002E
:1003DE00D4207008C0000F3083120805F0000319F6
:0E03EE00FA29CC20F22983164008F0000800FE
:1003FC0082208A110A128000840AD60A0319D70AAD
:08040C00F003031DFE290800A6
:10041400C330831203139F05C0309F008316400826
:10042400F000F00D7010F00D7010700883129F042E
:1004340083169F1783121F147A209F149F1C242A4B
:100444000000202A1F101E08F100F00183161E0868
:08045400F0040030F10408007F
:10045C00013083160313CB001A2001308316C5001C
:10046C000130C6002730C70089201A30FC00F83054
:10047C00FD00FD0B3F2AFC0B3F2A0000A101A2014D
:0C048C00A001A501A601A401A301080025
:10049800FF3083120313D900FF30DA00FF30DB008E
:1004A800FF30C3309F05C0309F0083169F1783120B
:0404B8001F14080005
:0A04BC00FF308316031388000800C8
:1004C60083120313FB01FA01F9018030F800F10CE5
:1004D600F00C031C772A7408F90775080318750FC2
:1004E600FA070318FB0A0310F01F7F2A7408FA079D
:1004F60075080318750FFB07FB0CFA0CF90CF80CC2
:10050600031C6A2A7B08F3007A08F2007908F100D6
:060516007808F000080067
:10051C0012265E228030031788008901FF300313F6
:10052C0085004F2101308316CB001A200C30831626
:10053C00CB001A204C2207308316C0000A22700808
:10054C008312AF0070088316C0000030C01BFF3050
:10055C00C1005C30C200AD210130C5000130C600C5
:10056C005C30C70089200317871388133330831638
:10057C000313990018159D218230FC00DD30FD001D
:10058C00FD0BC62AFC0BC62A000000002F08003AFF
:10059C00031DD52D01308316CB001A200130831694
:1005AC00C5000130C6004B30C700892021082B3A0A
:1005BC000319EE2A21082D3A0319EE2A21082E3AA6
:1005CC000319EE2A21082F3A0319EE2A2108A2005A
:1005DC00A101EF2170088312A10007308316C0001F
:1005EC000A2270088312AF007008003A0319FF2A20
:1005FC00022B21080319EF2A2F08003A0319072BA5
:10060C00D42D382B3130A100782B3430A100782B2D
:10061C003730A100782B4A30A100782B3230A10062
:10062C00782B3530A100782B3830A100782B303066
:10063C00A100782B3330A100782B3630A100782B19
:10064C003930A100782B4C30A100782B2B30A10035
:10065C00782B2D30A100782B2E30A100782B2F3049
:10066C00A100782B2108013A0319082B2108023A22
:10067C0003190B2B2108033A03190E2B2108043AFA
:10068C000319112B2108053A0319142B2108063ADA
:10069C000319172B2108073A03191A2B2108083ABA
:1006AC0003191D2B2108093A0319202B21080A3A9A
:1006BC000319232B21080B3A0319262B21080C3A7A
:1006CC000319292B21080D3A03192C2B21080E3A5A
:1006DC0003192F2B21080F3A0319322B2108103A3A
:1006EC000319352B2208003A031D8E2B21082B3AB7
:1006FC0003198D2B21082D3A03198D2B21082E3A25
:10070C0003198D2B21082F3A03198D2B8E2B2E229A
:10071C0021082B3A031D462C0130A400E02B41305C
:10072C00A200412C4430A200412C4730A200412CA5
:10073C005630A200412C4230A200412C4530A20080
:10074C00412C4830A200412C4B30A200412C4330AC
:10075C00A200412C4630A200412C4930A200412C71
:10076C005930A200412C4D30A200412C5030A20037
:10077C00412C5330A200412C5730A200412C4E305A
:10078C00A200412C5130A200412C5430A200412C2B
:10079C005830A200412C4F30A200412C5230A20004
:1007AC00412C5530A200412C5A30A200412C013072
:1007BC00A300412C2208313A0319952B2208343A14
:1007CC000319982B2208373A03199B2B22084A3A13
:1007DC0003199E2B2208323A0319A12B2208353A11
:1007EC000319A42B2208383A0319A72B2208303AF4
:1007FC000319AA2B2208333A0319AD2B2208363AD7
:10080C000319B02B2208393A0319B32B22084C3A9E
:10081C000319B62B2208413A0319B92B2208443A82
:10082C000319BC2B2208473A0319BF2B2208563A4E
:10083C000319C22B2208423A0319C52B2208453A48
:10084C000319C82B2208483A0319CB2B22084B3A20
:10085C000319CE2B2208433A0319D12B2208463A0E
:10086C000319D42B2208493A0319D72B2208593AD9
:10087C000319DA2BDD2B23080319452C2E22D32D3B
:10088C0021082D3A031D6C2C0130CA002508F000FC
:10089C002608F1000A30F4000030F50063223030F5
:1008AC002202F200F301031CF3037208F007730831
:1008BC000318013EF1077008A5007108A600A201FB
:1008CC007008D500A501A601A001D32D21082E3A50
:1008DC00031D3A2D01308316CB001A204A08031948
:1008EC00CB2C2508F0002608F1000A30F40000306B
:1008FC00F500632230302202F200F301031CF303F3
:10090C0072087007A50071080318013E7307A60052
:10091C0001308316CB001A2030305507F0007008D8
:10092C00A00001308316C5000130C6007008C70056
:10093C0089201A30FC00F830FD00FD0BA32CFC0BB9
:10094C00A32C00000430F2002508F0002608F1006A
:10095C0072080319B62CF00DF10D7010FF3EAF2C80
:10096C000B30F0070318F10A7008D3007108D4009B
:10097C0070088316C000831255088316C1002C2101
:10098C0083120313A001CA01392D30302202031C3B
:10099C00352D2208393C031C352D2508F00026087E
:1009AC00F1000A30F4000030F500632230302202EE
:1009BC00F200F301031CF3037008F207710803182B
:1009CC00013EF3077208A5007308A6000430F0007E
:1009DC0072088316C00070080319F82CC00D401063
:1009EC00FF3EF22C7208C1002C2183120313A001CC
:1009FC000430F0002508D3002608D4007008031931
:100A0C000C2DD30DD40D5310FF3E052DD101D20169
:100A1C0080305206F00080307002031D172D0F300D
:100A2C0051020318342DD30A0319D40A5308831620
:100A3C00C00083125108F0005208F100F00DF10DC6
:100A4C0070107008A03E840000088316C1002C2191
:100A5C0083120313D10A0319D20A0E2D362D2E221E
:100A6C00A501A6012221D32D21082F3A031D6C2D9F
:100A7C0001308316CB001A200430F0002508B90091
:100A8C002608BA0070080319502DB90DBA0D39108B
:100A9C00FF3E492DD101D20180305206F00080304A
:100AAC007002031D5B2D0F30510203186B2D39089A
:100ABC008316C000C1012C2183120313B90A031938
:100ACC00BA0AD10A0319D20A522DD32D24080319BC
:100ADC007F2D3808F000F00D70107008A03E8400D7
:100AEC0022088000840A8001A201B80AA001A40196
:100AFC00D32D22084C3A0319882D22084A3A03199F
:100B0C00882DA32D3808F000F00D70107008A03E51
:100B1C00840022088000840A8001A201B80A0130F6
:100B2C008316CB001A2001308316C5000130C60095
:100B3C003030C7008920A001D32D30302202031C95
:100B4C00D32D2208393C031CD32D2508F000260890
:100B5C00F1000A30F4000030F5006322303022023C
:100B6C00F200F301031CF30372087007A50071086F
:100B7C000318013E7307A60001308316C50001302F
:100B8C00C6003B30C70089201A30FC00F830FD004D
:100B9C00FD0BCE2DFC0BCE2D0000D02AD52DCC2A52
:020BAC00D62D44
:100C240020308400363083120313F000DC30D60009
:080C34000530D700FE21080085
:020BB800003407
:020BBA00003405
:020BBC00003403
:020BBE00003401
:020BC0000034FF
:040BC20000340034C7
:100BC600473472346534733468346B3461340034BA
:020BD6000034E9
:100BD8004A34203469346C34693420344C34003459
:020BE8000034D7
:040BEA00003400349F
:100BEE0056346E346534733465346E346134203467
:0E0BFE00423472346F346A346B346134003424
:020C0C000034B2
:0C0C0E0056346E3465347334693400349D
:040C1A00003400346E
:040C1E00003400346A
:020C220000349C
:04400E00F22F000786
:00000001FF
